:020000040800F2
:100000000000022099B9000839C3000845C3000860
:1000100061C3000869C3000871C300080000000044
:1000200000000000000000000000000079C300088C
:1000300085C300080000000091C300089DC30008AC
:1000400089B90008ADC30008B5C30008F1B30008C2
:10005000A1B20008BDC30008C5C30008D1C3000891
:10006000DDC30008E5C30008EDC30008F5C30008C0
:10007000FDC3000805C400080DC4000815C400082D
:100080001DC4000825C4000879A900085DAD00085A
:10009000BDAC000881AD000889AD00082DC4000882
:1000A00035C400083DC4000845C400084DC400081C
:1000B00055C400085DC4000865C40008A9B2000862
:1000C000B1B20008B9B20008C1B200087DB500089D
:1000D00085B5000819B8000855B8000891B800089F
:1000E0006DC40008F9B3000879C4000881C4000891
:1000F00089C4000891C4000899C40008A1C400087C
:10010000A9C40008B1C40008B9C400088DB500082E
:1001100095B5000835B60008C1C40008C9C4000878
:10012000D1C40008D9C40008E1C40008E9C400082B
:10013000F1C40008F9C4000801C5000879AF00083F
:10014000D9AE00089DAF0008A5AF000809C500089A
:1001500015C500081DC5000825C50008CDB8000854
:10016000C9B20008D1B2000805BA000805BA0008F3
:100170002DC5000835C500083DC5000845C5000867
:100180004DC5000800000000000000000000000055
:100190005CD700080000022081F0004102E000BFAF
:1001A00083F0004330B54FEA41044FEA430594EA37
:1001B000050F08BF90EA020F1FBF54EA000C55EA72
:1001C000020C7FEA645C7FEA655C00F0E2804FEA43
:1001D0005454D4EB5555B8BF6D420CDD2C4480EA25
:1001E000020281EA030382EA000083EA010180EA55
:1001F000020281EA0303362D88BF30BD11F0004FA3
:100200004FEA01314FF4801C4CEA113102D04042D8
:1002100061EB410113F0004F4FEA03334CEA133313
:1002200002D0524263EB430394EA050F00F0A7802B
:10023000A4F10104D5F1200E0DDB02FA0EFC22FA26
:1002400005F2801841F1000103FA0EF2801843FA1A
:1002500005F359410EE0A5F120050EF1200E012A0B
:1002600003FA0EFC28BF4CF0020C43FA05F3C01849
:1002700051EBE37101F0004507D54FF0000EDCF1C2
:10028000000C7EEB00006EEB0101B1F5801F1BD36B
:10029000B1F5001F0CD349085FEA30004FEA3C0C6F
:1002A00004F101044FEA445212F5800F80F09A8065
:1002B000BCF1004F08BF5FEA500C50F1000041EB69
:1002C000045141EA050130BD5FEA4C0C404141EB6D
:1002D000010111F4801FA4F10104E9D191F0000F94
:1002E00004BF01460020B1FA81F308BF2033A3F117
:1002F0000B03B3F120020CDA0C3208DD02F1140C0E
:10030000C2F10C0201FA0CF021FA02F10CE002F148
:100310001402D8BFC2F1200C01FA02F120FA0CFC41
:10032000DCBF41EA0C019040E41AA2BF01EB04518A
:10033000294330BD6FEA04041F3C1CDA0C340EDC88
:1003400004F11404C4F1200220FA04F001FA02F3CB
:1003500040EA030021FA04F345EA030130BDC4F189
:100360000C04C4F1200220FA02F001FA04F340EA7E
:100370000300294630BD21FA04F0294630BD94F02F
:10038000000F83F4801306BF81F480110134013D16
:100390004EE77FEA645C18BF7FEA655C29D094EA87
:1003A000050F08BF90EA020F05D054EA000C04BF05
:1003B0001946104630BD91EA030F1EBF00210020F0
:1003C00030BD5FEA545C05D14000494128BF41F08F
:1003D000004130BD14F580043CBF01F5801130BDF3
:1003E00001F0004545F0FE4141F470014FF000007E
:1003F00030BD7FEA645C1ABF194610467FEA655C2F
:100400001CBF0B46024650EA013406BF52EA0335D0
:1004100091EA030F41F4002130BD00BF90F0000FBE
:1004200004BF0021704730B54FF4806404F13204FA
:100430004FF000054FF0000150E700BF90F0000FB3
:1004400004BF0021704730B54FF4806404F13204DA
:1004500010F0004548BF40424FF000013EE700BFAA
:1004600042004FEAE2014FEA31014FEA02701FBF3A
:1004700012F07F4393F07F4F81F06051704792F00C
:10048000000F14BF93F07F4F704730B54FF4607486
:1004900001F0004521F0004120E700BF50EA0102D1
:1004A00008BF704730B54FF000050AE050EA01027E
:1004B00008BF704730B511F0004502D5404261EBEE
:1004C00041014FF4806404F132045FEA915C3FF42F
:1004D000DCAE4FF003025FEADC0C18BF03325FEAC8
:1004E000DC0C18BF033202EBDC02C2F1200300FA7D
:1004F00003FC20FA02F001FA03FE40EA0E0021FAA2
:1005000002F11444C1E600BF70B54FF0FF0C4CF48B
:10051000E06C1CEA11541DBF1CEA135594EA0C0F41
:1005200095EA0C0F00F0DEF82C4481EA030621EA7C
:100530004C5123EA4C5350EA013518BF52EA0335B7
:1005400041F4801143F4801338D0A0FB02CE4FF069
:100550000005E1FB02E506F00042E0FB03E54FF099
:100560000006E1FB03569CF0000F18BF4EF0010E91
:10057000A4F1FF04B6F5007F64F5407404D25FEA8D
:100580004E0E6D4146EB060642EAC62141EA555140
:100590004FEAC52040EA5E504FEACE2EB4F1FD0C82
:1005A00088BFBCF5E06F1ED8BEF1004F08BF5FEA00
:1005B000500E50F1000041EB045170BD06F00046B2
:1005C00046EA010140EA020081EA0301B4EB5C045F
:1005D000C2BFD4EB0C0541EA045170BD41F4801157
:1005E0004FF0000E013C00F3AB8014F1360FDEBF7C
:1005F000002001F0004170BDC4F10004203C35DA58
:100600000C341BDC04F11404C4F1200500FA05F3DA
:1006100020FA04F001FA05F240EA020001F000427B
:1006200021F0004110EBD37021FA04F642EB0601F1
:100630005EEA430E08BF20EAD37070BDC4F10C041B
:10064000C4F1200500FA04F320FA05F001FA04F2DF
:1006500040EA020001F0004110EBD37041F10001CB
:100660005EEA430E08BF20EAD37070BDC4F12005D6
:1006700000FA05F24EEA020E20FA04F301FA05F23E
:1006800043EA020321FA04F001F0004121FA04F2E6
:1006900020EA020000EBD3705EEA430E08BF20EAB6
:1006A000D37070BD94F0000F0FD101F000464000F0
:1006B00041EB010111F4801F08BF013CF7D041EA72
:1006C000060195F0000F18BF704703F00046520076
:1006D00043EB030313F4801F08BF013DF7D043EA47
:1006E0000603704794EA0C0F0CEA135518BF95EAFD
:1006F0000C0F0CD050EA410618BF52EA4306D1D184
:1007000081EA030101F000414FF0000070BD50EAA2
:10071000410606BF1046194652EA430619D094EA2C
:100720000C0F02D150EA013613D195EA0C0F05D116
:1007300052EA03361CBF104619460AD181EA03016A
:1007400001F0004141F0FE4141F470014FF0000022
:1007500070BD41F0FE4141F4780170BD70B54FF0BD
:10076000FF0C4CF4E06C1CEA11541DBF1CEA13553D
:1007700094EA0C0F95EA0C0F00F0A7F8A4EB05041F
:1007800081EA030E52EA03354FEA013100F0888016
:100790004FEA03334FF0805545EA131343EA1263DF
:1007A0004FEA022245EA111545EA10654FEA002694
:1007B0000EF000419D4208BF964244F1FD0404F54D
:1007C000407402D25B084FEA3202B61A65EB0305A9
:1007D0005B084FEA32024FF480104FF4002CB6EB66
:1007E000020E75EB030E22BFB61A754640EA0C00E6
:1007F0005B084FEA3202B6EB020E75EB030E22BF26
:10080000B61A754640EA5C005B084FEA3202B6EB66
:10081000020E75EB030E22BFB61A754640EA9C0025
:100820005B084FEA3202B6EB020E75EB030E22BFF5
:10083000B61A754640EADC0055EA060E18D04FEAB3
:10084000051545EA16754FEA06164FEAC30343EA53
:1008500052734FEAC2025FEA1C1CC0D111F4801F20
:100860000BD141EA00014FF000004FF0004CB6E719
:1008700011F4801F04BF01430020B4F1FD0C88BFB8
:10088000BCF5E06F3FF6AFAEB5EB030C04BFB6EBC3
:10089000020C5FEA500C50F1000041EB045170BDB6
:1008A0000EF0004E4EEA113114EB5C04C2BFD4EBE3
:1008B0000C0541EA045170BD41F480114FF0000E67
:1008C000013C90E645EA060E8DE60CEA135594EAE3
:1008D0000C0F08BF95EA0C0F3FF43BAF94EA0C0FE6
:1008E0000AD150EA01347FF434AF95EA0C0F7FF45B
:1008F00025AF104619462CE795EA0C0F06D152EAAF
:1009000003353FF4FDAE1046194622E750EA410692
:1009100018BF52EA43067FF4C5AE50EA41047FF4A3
:100920000DAF52EA43057FF4EBAE12E74FF0FF3C08
:1009300006E000BF4FF0010C02E000BF4FF0010CD9
:100940004DF804CD4FEA410C7FEA6C5C4FEA430C52
:1009500018BF7FEA6C5C1BD001B050EA410C0CBFA1
:1009600052EA430C91EA030F02BF90EA020F002003
:10097000704710F1000F91EA030F58BF994208BF6A
:1009800090422CBFD8176FEAE37040F00100704727
:100990004FEA410C7FEA6C5C02D150EA013C07D17E
:1009A0004FEA430C7FEA6C5CD6D152EA033CD3D0C9
:1009B0005DF8040B704700BF8446104662468C46C3
:1009C0001946634600E000BF01B5FFF7B7FF0028F6
:1009D00048BF10F1000F01BD4DF808EDFFF7F4FF1F
:1009E0000CBF012000205DF808FB00BF4DF808EDAA
:1009F000FFF7EAFF34BF012000205DF808FB00BFCD
:100A00004DF808EDFFF7E0FF94BF012000205DF8EE
:100A100008FB00BF4DF808EDFFF7CEFF94BF0120A3
:100A200000205DF808FB00BF4DF808EDFFF7C4FF9C
:100A300034BF012000205DF808FB00BF4FEA4102EF
:100A400012F5001215D211D56FF47873B3EB625220
:100A500012D94FEAC12343F0004343EA505311F047
:100A6000004F23FA02F018BF404270474FF00000D9
:100A7000704750EA013005D111F0004008BF6FF017
:100A8000004070474FF00000704700BF40F29C23C9
:100A9000C2F200031B681844407800F0070070475A
:100AA0008307C9B270B43FD0541E2AB303788B4277
:100AB00023D0431C04E0FCB1057814468D421CD0C1
:100AC00013F0030F184604F1FF3203F10103F2D1D2
:100AD000032C14D8651E4CB303788B420DD0421CF6
:100AE000002302E004788C4207D0AB42104603F1A9
:100AF000010302F10102F5D1002070BC704741EA08
:100B00000126034646EA0646184604330268724048
:100B1000A2F1013525EA020212F0803FDAD1043C4D
:100B20001846032CF0D8D5E71446D1E72046E4E771
:100B30000F2AF0B445D940EA01039B0745D1A2F141
:100B400010070C4603463F0900EB071610362568D0
:100B50001033103443F8105C54F80C5C43F80C5C10
:100B600054F8085C43F8085C54F8045C43F8045CEF
:100B7000B342ECD17B1C02F00F0CBCF1030F4FEA27
:100B800003131944034422D90E461D46644656F801
:100B9000047B043C032C45F8047BF8D8ACF1040436
:100BA00002F0030224F0030404342344214432B14C
:100BB0000A4411F8014B914203F8014BF9D1F0BC02
:100BC00070470346002AF3D1F9E70346F0E762468F
:100BD000002AEDD1F3E700BF8307F0B448D0541EDC
:100BE000002A43D0CDB2034602E0002C3ED014468A
:100BF00003F8015B13F0030F04F1FF32F5D1032C6E
:100C00002DD9CDB20F2C45EA052545EA054518D961
:100C1000A4F1100703F110061A463F0906EB071668
:100C20001560103242F80C5C42F8085C42F8045C33
:100C3000B242F5D104F00F040137032C03EB071384
:100C40000DD91E462246043A46F8045B032AFAD818
:100C5000221F04F0030422F00302043213442CB1D7
:100C6000C9B21C4403F8011BA342FBD1F0BC70477E
:100C700014460346C3E700BFC1F30A5C2DE9F843FD
:100C8000ACF2FF33132B06460F4613DC002B40DB80
:100C90004FF6FF7CC0F20F0C4CFA03F303EA010C91
:100CA0005CEA000C1CD107F00041C2E90067604615
:100CB000BDE8F883332B1EDC4FF0FF33ACF2134C4E
:100CC00023FA0CFC1CEA00031CD020EA0C060F4699
:100CD0000B46C2E900673246FFF762FABDE8F883C7
:100CE00021EA030700263B46C2E900673246FFF7C8
:100CF00057FABDE8F88307F00041C2E90067002019
:100D0000BDE8F88307F00041C2E900671846BDE876
:100D1000F88307F000494FF00008C2E90089BDE8F8
:100D2000F88300BF40EA010C1CF0070F27D1BDF18A
:100D3000100DCDE90245CDE900676FF000064FF0D8
:100D4000000700BFF0E80223F1E80245A242A2F149
:100D5000013C2CEA020C0CF0803C08BFBCF1000FF7
:100D600040F0E580AB42A3F1013C2CEA030C0CF00F
:100D7000803C08BFBCF1000F40F0D680E2E710F0E5
:100D8000030C21D020F0030050F8042B5FEACC7C48
:100D900008D00FD211F801CB5FFA92F3B3EB0C0C31
:100DA00010D17BB111F801CB5FFAA2F3B3EB0C0CBD
:100DB00008D13BB111F801CB5FFAB2F3B3EB0C0CE5
:100DC00000D10BB960467047BDF1100DCDE9024569
:100DD000CDE900676FF000064FF0000711F0030C3B
:100DE00033D110F0040F0FD050F8042B51F8044BFE
:100DF000A242A2F1013C2CEA020C0CF0803C08BF9C
:100E0000BCF1000F40F0938011F0040F99D051F81D
:100E1000045B00BFF0E80223AA42A2F1013C2CEAE5
:100E2000020C0CF0803C08BFBCF1000F79D1F1E856
:100E30000245A342A3F1013C2CEA030C0CF0803CD8
:100E400008BFBCF1000F69D1E4E721F00301BCF158
:100E5000020F20D03FDA51F8045B00BF50F8043B8A
:100E60004FEA1525A3F1013C2CEA030C0CF0803C61
:100E7000B7EB0C2F03EA162208BFAA4251D151F852
:100E8000045BBCF1000F82EA03034FEA056208BF6E
:100E9000934240D1E2E751F8045B00BF50F8043BB5
:100EA0004FEA1545A3F1013C2CEA030C0CF0803C01
:100EB000B7EB0C4F03EA164208BFAA4231D151F8F2
:100EC000045BBCF1000F82EA03034FEA054208BF4E
:100ED000934220D1E2E751F8045B00BF50F8043B95
:100EE0004FEA1565A3F1013C2CEA030C0CF0803CA1
:100EF000B7EB0C6F03EA166208BFAA4211D151F892
:100F0000045BBCF1000F82EA03034FEA052208BF2D
:100F1000934200D1E2E719BA12BA0AE019BA22BA2A
:100F200007E011BA2ABA04E019BA2ABA01E011BAE4
:100F300022BA9CFA8CF0DDE90067DDE902451DF17B
:100F4000100D38B1B0FA80F0C0F1180021FA00F1AC
:100F500022FA00F20120914298BF8041704700BF01
:100F600080EA0102844612F0030F4FD111F0030F03
:100F700032D14DF8044D11F0040F51F8043B0BD061
:100F8000A3F101329A4312F0803F04BF4CF8043BB6
:100F900051F8043B16D100BF51F8044BA3F10132C4
:100FA0009A4312F0803FA4F101320BD14CF8043B7C
:100FB000A24312F0803F04BF51F8043B4CF8044BAD
:100FC000EAD023460CF8013B13F0FF0F4FEA33231E
:100FD000F8D15DF8044B704711F0010F06D011F8FD
:100FE000012B0CF8012B002A08BF704711F0020FEB
:100FF000BFD031F8022B12F0FF0F16BF2CF8022BD6
:101000008CF8002012F47F4FB3D1704711F8012BF8
:101010000CF8012B002AF9D1704700BF20F0030122
:1010200010F00300C0F1000051F8043B00F1040C83
:101030004FEACC0C6FF000021CBF22FA0CF21343F3
:101040004FF0010C4CEA0C2C4CEA0C4CA3EB0C02BC
:1010500022EA030212EACC1204BF51F8043B043026
:10106000F4D013F0FF0F1FBF013013F47F4F013096
:1010700013F47F0F18BF0130704700BF830770B4AF
:101080002AD10368A3F1013424EA030313F0803F5B
:1010900008BF031D20D11C4653F8045BA5F101369F
:1010A00026EA050515F0803FF5D023782BB1631CA7
:1010B0001C4601332578002DFAD1013C8D1805E03E
:1010C00011F8013B04F8013F23B13AB1A94202F102
:1010D000FF32F5D170BC70470446E6E76270F5E771
:1010E000F0B4002A4BD040EA010313F003032DD1E2
:1010F000032A2BD904680D68AC4227D1043A3ED0AC
:10110000A4F1013525EA040414F0803F3DD10C46DA
:1011100005460EE06B68054666680C46A3F101378C
:10112000B34227EA030711D1043A28D017F0803FD1
:1011300028D1032A00F1040001F10401EAD8561E67
:101140002AB928792279801AF0BC7047561E037894
:101150000A7893421BD1E6B1BBB101368B1C044621
:10116000314405E08B4203F101030BD00028EBD0A2
:1011700014F8010F13F8012C9042F3D0E3E7104666
:10118000F0BC70470020F0BC70471846DCE71846FA
:10119000D9E73046D8E700BF40EA01039B0770B4A7
:1011A0002BD1032A84BF0B46054626D9194653F88E
:1011B000044BA4F1013626EA040616F0803F05D15F
:1011C000043A45F8044B032A1946EFD89AB10C7833
:1011D000013A6B1C2C703CB16AB111F8014F013A15
:1011E00003F8014B002CF7D12AB11A44002103F86F
:1011F000011B9342FBD170BC70470546E6E700BF78
:101200002DE9F04F40F29C2485B0C2F200048C46D8
:10121000994603900846D4F8008000E02046044632
:1012200014F8015B08EB0503597801F0080101F09F
:10123000FF030029F2D12D2D76D02B2D04BF841C65
:10124000457839F0100112D1D9F1010138BF0021E0
:10125000302D04D059B14FF00A09CB4608E0207870
:1012600000F0DF00582863D009B14FF00809CB46E1
:10127000002B59460CBF6FF000464FF0004600921D
:1012800030460293CDF804C000F094F900273046B0
:101290008A46594600F060F83946029B9DE80410E2
:1012A0000CE05545D4BF00260126814218BF002618
:1012B000EEB90BFB0151012714F8015B08EB0506A1
:1012C000767816F0040F18BF303D07D116F00306EC
:1012D00010D0012E14BF57263726AD1BA94509DDB6
:1012E000814294BF0026012656EAD777D9D04FF025
:1012F000FF37E1E7781C08D0A3B9084612B17FB9DF
:101300006446146005B0BDE8F08F0399002B0CBF54
:101310006FF000404FF0004022230B60002AF1D014
:10132000013CEEE74942E8E7841C4578012388E761
:101330004FF010096578CB46023499E730B440F29B
:10134000A024C2F200040D46134601462A46206836
:1013500030BCFFF755BF00BF4A1E08BF7047C0F042
:101360002481884240F21681114200F01781B0FAC0
:1013700080F3B1FA81F2A2EB0303C3F11F0304A2CD
:1013800002EB03134FF000029F4600BFAFF3008053
:10139000B0EBC17F00BF42EB020228BFA0EBC170DF
:1013A000B0EB817F00BF42EB020228BFA0EB81704F
:1013B000B0EB417F00BF42EB020228BFA0EB4170BF
:1013C000B0EB017F00BF42EB020228BFA0EB01702F
:1013D000B0EBC16F00BF42EB020228BFA0EBC160BF
:1013E000B0EB816F00BF42EB020228BFA0EB81602F
:1013F000B0EB416F00BF42EB020228BFA0EB41609F
:10140000B0EB016F00BF42EB020228BFA0EB01600E
:10141000B0EBC15F00BF42EB020228BFA0EBC1509E
:10142000B0EB815F00BF42EB020228BFA0EB81500E
:10143000B0EB415F00BF42EB020228BFA0EB41507E
:10144000B0EB015F00BF42EB020228BFA0EB0150EE
:10145000B0EBC14F00BF42EB020228BFA0EBC1407E
:10146000B0EB814F00BF42EB020228BFA0EB8140EE
:10147000B0EB414F00BF42EB020228BFA0EB41405E
:10148000B0EB014F00BF42EB020228BFA0EB0140CE
:10149000B0EBC13F00BF42EB020228BFA0EBC1305E
:1014A000B0EB813F00BF42EB020228BFA0EB8130CE
:1014B000B0EB413F00BF42EB020228BFA0EB41303E
:1014C000B0EB013F00BF42EB020228BFA0EB0130AE
:1014D000B0EBC12F00BF42EB020228BFA0EBC1203E
:1014E000B0EB812F00BF42EB020228BFA0EB8120AE
:1014F000B0EB412F00BF42EB020228BFA0EB41201E
:10150000B0EB012F00BF42EB020228BFA0EB01208D
:10151000B0EBC11F00BF42EB020228BFA0EBC1101D
:10152000B0EB811F00BF42EB020228BFA0EB81108D
:10153000B0EB411F00BF42EB020228BFA0EB4110FD
:10154000B0EB011F00BF42EB020228BFA0EB01106D
:10155000B0EBC10F00BF42EB020228BFA0EBC100FD
:10156000B0EB810F00BF42EB020228BFA0EB81006D
:10157000B0EB410F00BF42EB020228BFA0EB4100DD
:10158000B0EB010F00BF42EB020228BFA0EB01004D
:10159000104670470CBF012000207047B1FA81F25D
:1015A000C2F11F0220FA02F0704708B14FF0FF307D
:1015B00000F00EB80029F8D02DE90340FFF7CCFE6B
:1015C000BDE8064002FB00F3A1EB0301704700BF3A
:1015D000704700BF80B485B000AFF860B9607A6032
:1015E0003B60FB68002B00D115E0BB68002B00D1ED
:1015F00011E0FB6800221A60FB6800225A60FB6859
:101600007A689A60FB683A68DA60FB68BA681A61BF
:10161000FB6800221A751437BD465DF8047B7047DD
:101620000FB490B482B000AF07F114043C603B6982
:101630001B7D032B01D1032333E000237B600EE0ED
:101640003B6919693A691368581C10600B44396882
:101650007A680A4412781A707B6801337B603B69B0
:10166000DA687B689A42EBD83B691A683B699B68E9
:101670003969C96801FB03F39A4202D33B6900222E
:101680001A603B691A683B695B689A4204D13B69FE
:1016900003221A75012304E03B6902221A753B6993
:1016A0001B7D18460837BD4690BC04B0704700BF8C
:1016B00090B484B000AF786039607B681B7D002BEC
:1016C00001D1002335E00023FB6010E03A68FB689D
:1016D0001A447B6819697B685B685C1C78684460A5
:1016E0000B441B78DBB21370FB680133FB607B6833
:1016F000DA68FB689A42E9D87B685A687B689B681D
:101700007968C96801FB03F39A4202D37B6800221F
:101710005A607B681A687B685B689A4204D17B6870
:1017200000221A75012304E07B6802221A757B6887
:101730001B7D18461037BD4690BC704780B400AF83
:1017400072B6BD465DF8047B704700BF80B584B0BB
:1017500000AF78607B681A680023C2F6FD731340FF
:10176000B3F1005F13D17B6804331B68FB60FB6837
:10177000BB60FFF7E3FF08F061FE7B681B6818465B
:1017800008F00EFEBB6800209847002300E001230C
:1017900018461037BD4680BD80B400AF62B6BD4666
:1017A0005DF8047B704700BF80B400AF72B6BD46E1
:1017B0005DF8047B704700BF80B584B000AF7860EF
:1017C000FFF7F2FF40F29833C2F200031B68002BD0
:1017D00002D1FFF7E1FF39E040F29833C2F2000393
:1017E0001A687B689A420DD140F29833C2F2000326
:1017F0001B681A6940F29833C2F200031A60FFF7BF
:10180000CBFF23E040F29833C2F200031B68BB60B9
:1018100040F29833C2F200031B68FB6004E0BB682F
:10182000FB60BB681B69BB60BB681B69002B03D0F6
:10183000BA687B689A42F2D1BA687B689A4203D14F
:10184000BB681A69FB681A61FFF7A6FF1037BD462F
:1018500080BD00BF80B584B000AF7860FFF7A4FF03
:101860007B6800221A6140F29833C2F200031B68C1
:10187000002B08D140F29833C2F200037A681A6054
:10188000FFF78AFF47E07B689A6840F29833C2F21C
:1018900000031B689B689A420FD240F29833C2F251
:1018A00000031A687B681A6140F29833C2F20003A1
:1018B0007A681A60FFF770FF2DE040F29833C2F2A9
:1018C00000031B68FB6040F29833C2F200031B6800
:1018D000BB6004E0BB68FB60BB681B69BB60BB68A6
:1018E0001B69002B05D0BB689A687B689B689A428D
:1018F000F0D9BB689A687B689B689A4206D97B6876
:10190000BA681A61FB687A681A6102E0BB687A6893
:101910001A61FFF741FF1037BD4680BD80B500AFAB
:1019200040F29433C2F200031B685A1C40F2943315
:10193000C2F200031A600EE040F29833C2F20003D4
:101940001B6801221A7340F29833C2F200031B682D
:101950001846FFF731FF40F29833C2F200031B68CC
:10196000002B0CD040F29833C2F200031B689A6837
:1019700040F29433C2F200031B689A42DCD980BD66
:1019800080B485B000AF786040F29433C2F20003B7
:101990001A687B681344FB6000BF40F29433C2F2C4
:1019A00000031A68FB689A42F7D31437BD465DF806
:1019B000047B704780B400AF40F29433C2F200035E
:1019C0001B681846BD465DF8047B704780B582B041
:1019D00000AF786039607868FFF7EEFE40F294332C
:1019E000C2F200031A687B681A6040F29433C2F2B4
:1019F00000031A687B685A6040F29433C2F2000315
:101A00001A683B681A447B689A607868FFF722FF7F
:101A10007B6803221A730837BD4680BD80B483B04B
:101A200000AF78607B681B7B032B01D1012300E0B2
:101A3000002318460C37BD465DF8047B704700BF95
:101A400080B582B000AF786039607B68002B0AD027
:101A50007B681B683A68D2B21A707B681B685A1C94
:101A60007B681A6004E03B68DBB2184608F0C4FEED
:101A70000837BD4680BD00BF2DE9F04184B000AFFE
:101A8000F860B9607A603B60002420267B68002BF8
:101A900019DD0025D7F8088002E0013508F10108BA
:101AA00098F80030002BF8D17B689D4202DB0023C0
:101AB0007B6002E07B685B1B7B603B6803F002039A
:101AC000002B00D030263B6803F00103002B0BD124
:101AD00007E0F8683146FFF7B3FF01347B68013B4C
:101AE0007B607B68002BF4DC0AE0BB681B785BB290
:101AF000F8681946FFF7A4FF0134BB680133BB60E7
:101B0000BB681B78002BF0D107E0F8683146FFF77F
:101B100097FF01347B68013B7B607B68002BF4DC22
:101B2000234618461037BD46BDE8F0812DE9F04345
:101B30008DB000AFF860B9607A603B604FF000098B
:101B40004FF00008BD68002387F82F30BB68002BDA
:101B500033D13B68002B0CD097F82F301A46013256
:101B600087F82F205BB207F1300213442D2203F8CF
:101B7000202C97F82F301A46013287F82F205BB2BD
:101B800007F130021344302203F8202C97F82F304D
:101B90001A46013287F82F205BB207F13002134456
:101BA000002203F8202C07F11003F86819463A6D5B
:101BB0007B6DFFF761FF03464AE03B68002B0AD0CC
:101BC0007B680A2B07D1BB68002B04DC4FF00109AE
:101BD000BB685B421D4607F110041D3400232370CF
:101BE00014E07B68B5FBF3F203FB02F3EB1A1E462D
:101BF000092E02DDBB6D3A3B1E44013CF3B230338B
:101C0000DBB2DBB223707B68B5FBF3F5002DE8D1C6
:101C1000B9F1000F14D03B6D002B0ED07B6D03F09B
:101C20000203002B09D0F8682D21FFF709FF08F106
:101C300001083B6D013B3B6502E0013C2D23237015
:101C4000F86821463A6D7B6DFFF716FF0346434463
:101C500018463437BD46BDE8F08300BF90B58FB05D
:101C600004AFF860C7E900230023BB6107F110034C
:101C7000D7E900011A46FEF7FFFFC7E908013B6AF2
:101C80003B627B6A23F000437B620023FB6110E030
:101C9000D7E908014FF000024FF00003C4F224031B
:101CA000FEF732FC02460B46C7E90823FB69013305
:101CB000FB61FA69FB6B9A42EADBD7E90423104621
:101CC0001946FEF7BBFE0446D7E900014FF00002BB
:101CD0004FF00003FEF78AFE0346002B1AD0D7E927
:101CE0000801FEF7ABFE03461846FEF7A7FBD7E94F
:101CF0000423FEF757FA02460B46104619464FF0EA
:101D000000024FF00003FEF767FE0346002B01D1EF
:101D1000012300E00023BA6B00923A6C0192612229
:101D20000292F86821460A22FFF700FF0346BA69CB
:101D30001344BB61F8682E21FFF782FEBB690133B3
:101D4000BB61D7E90801FEF779FE0346002B10D1ED
:101D5000FB6B00930223019361230293F868002137
:101D60000A220023FFF7E2FE0346BA691344BB616F
:101D700014E0D7E90801FEF761FE0346FA6B009212
:101D80000222019261220292F86819460A22002377
:101D9000FFF7CCFE0346BA691344BB61BB69184622
:101DA0002C37BD4690BD00BF2DE9F0418AB004AF8D
:101DB000F860B9607A60002419E1BB681B785BB2F7
:101DC000252B40F00981BB680133BB6000263546F6
:101DD0004FF00008BB681B78002B00D10CE1BB68FA
:101DE0001B785BB2252B00D1F6E0BB681B785BB299
:101DF0002D2B04D1BB680133BB60012605E004E054
:101E0000BB680133BB6046F00206BB681B785BB25F
:101E1000302BF5D00CE02B469B002B445B001D467D
:101E2000BB681B785BB2303B1D44BB680133BB60B1
:101E3000BB681B785BB22F2B04DDBB681B785BB2E1
:101E4000392BE8DDBB681B785BB22E2B1BD1BB683E
:101E50000133BB600CE043469B0043445B00984663
:101E6000BB681B785BB2303B9844BB680133BB60F6
:101E7000BB681B785BB22F2B07DDBB681B785BB29E
:101E8000392BE8DD01E04FF00608BB681B785BB238
:101E9000732B16D17B681A1D7A601B689846B8F1BF
:101EA000000F01D0434603E04CF25453C0F6000348
:101EB000F86819462A463346FFF7DEFD03461C4400
:101EC00092E0BB681B785BB2642B13D17B681A1D50
:101ED0007A601B687B617B69DB0FDBB20095019642
:101EE00061220292F86879690A22FFF71FFE034611
:101EF0001C4479E0BB681B785BB2782B10D17B68FF
:101F00001A1D7A601B680095019661220292F8689A
:101F1000194610220023FFF709FE03461C4463E024
:101F2000BB681B785BB2582B10D17B681A1D7A6096
:101F30001B680095019641220292F868194610220A
:101F40000023FFF7F3FD03461C444DE0BB681B78FC
:101F50005BB2752B10D17B681A1D7A601B680095E7
:101F6000019661220292F86819460A220023FFF7BF
:101F7000DDFD03461C4437E0BB681B785BB2632B76
:101F800012D17B681A1D7A601B68DBB23B74002398
:101F90007B7407F11003F86819462A463346FFF7A9
:101FA0006BFD03461C441FE0BB681B785BB2662BCD
:101FB0001AD17B68073323F0070303F108027A6024
:101FC000D3E900230095CDF804800296F868FFF766
:101FD00045FE03461C4407E0BB681B785BB2F8680B
:101FE0001946FFF72DFD0134BB680133BB60BB68A8
:101FF0001B78002B7FF4E1AEFB68002B03D0FB685D
:102000001B6800221A70234618461837BD46BDE8E3
:10201000F08100BF0FB480B582B000AF07F11403A8
:102020007B60002039697A68FFF7BEFE03461846D8
:102030000837BD46BDE8804004B0704780B485B025
:1020400000AF03463960FB80FB887F2B02D8FB88FA
:10205000FB812BE03B68002B0FD0FB88FF2B09D8BE
:10206000FB88A3F180024CF6AC63C0F6000333F8A2
:10207000123000E00023FB8118E00023FB810DE01B
:10208000FA894CF6AC63C0F6000333F81230FA88D4
:102090009A4200D105E0FB890133FB81FB897F2B4C
:1020A000EED9FB8980339BB2DBB2FB81FB891846FA
:1020B0001437BD465DF8047B704700BF80B485B01F
:1020C00000AF0346FB800023FB6002E0FB680133A6
:1020D000FB604CF6AC73C0F60003FA6833F81230BC
:1020E000002B09D04CF6AC73C0F60003FA6833F845
:1020F0001230FA889A42E9D14CF6AC73C0F600036C
:10210000FA6833F81230002B07D04DF28C13C0F66A
:102110000003FA6833F8123000E0FB8818461437E1
:10212000BD465DF8047B704780B400AF01231846BC
:10213000BD465DF8047B704780B400AF00231846AD
:10214000BD465DF8047B704780B582B000AF40F2B9
:10215000A033C2F2000332221A6009F007FA09F034
:1021600005FA0346FB71FB79FF2B06D040F2A03342
:10217000C2F200031B68002BF1D1FB791846083727
:10218000BD4680BD80B500AF1C20002108F0FAFAE2
:1021900009F0ECF980BD00BF80B500AF1C20002124
:1021A00008F0F0FA642009F02BF909F0DFF980BD9E
:1021B00080B400AF40F21403C2F200031B78DBB21C
:1021C00043F00103DAB240F21403C2F200031A70C2
:1021D000BD465DF8047B704790B585B000AF786070
:1021E000396040F29C33C2F200030A221A6009F0FF
:1021F000BDF90346FB73FB7BFF2B06D140F29C33FA
:10220000C2F200031B68002BF1D1FB7BFE2B01D037
:10221000002326E07C68631C7B6009F0A7F9034675
:1022200023707C68631C7B6009F0A0F9034623706F
:102230007C68631C7B6009F099F9034623707C6815
:10224000631C7B6009F092F9034623703B68043BF2
:102250003B603B68002BDDD109F088F909F086F975
:10226000012318461437BD4690BD00BF80B584B029
:1022700000AF78600B46FB70FFF766FF0346FF2B4D
:1022800001D000232EE0FB78184609F03FF9FB78D7
:10229000FD2B26D00023FB737B685A1C7A601B78C9
:1022A000184609F033F97B685A1C7A601B78184687
:1022B00009F02CF9FB7B013BFB73FB7B002BEBD183
:1022C000FF2009F023F9FF2009F020F909F04EF969
:1022D0000346BB73BB7B03F01F03052B01D0002318
:1022E00000E0012318461037BD4680BD80B584B09C
:1022F00000AF03463960FB71FB795BB2002B0EDA4D
:10230000FB7903F07F03FB7177200021FFF7EEFFDD
:102310000346BB73BB7B012B01D9BB7B4FE01C2069
:10232000002108F02FFA1C20012108F02BFAFFF7FA
:102330000BFF0346FF2B01D0FF2340E0FB7918463B
:1023400009F0E4F83B681B0EDBB2184609F0DEF832
:102350003B681B0CDBB2184609F0D8F83B681B0A37
:10236000DBB2184609F0D2F83B68DBB2184609F038
:10237000CDF80123FB73FB79402B01D19523FB732F
:10238000FB79482B01D18723FB73FB7B184609F0AF
:10239000BDF8FB794C2B01D109F0E8F80A23FB7357
:1023A00009F0E4F80346BB73BB7B5BB2002B05DA94
:1023B000FB7B013BFB73FB7B002BF1D1BB7B184606
:1023C0001037BD4680BD00BF90B583B000AF40F26E
:1023D0001403C2F200031B78DBB203F00203002BEC
:1023E00006D040F21403C2F200031B78DBB2CFE048
:1023F000FFF7D2FE0A23FB7104E009F0B7F8FB797E
:10240000013BFB71FB79002BF7D100237B7140204E
:102410000021FFF76BFF0346012B40F0938040F251
:102420009C33C2F2000364221A6048204FF4D57135
:10243000FFF75CFF0346012B53D10023FB710CE037
:10244000FC7909F093F803461A4607F10803234480
:1024500003F8082CFB790133FB71FB79032BEFD9CF
:10246000BB78012B6ED1FB78AA2B6BD100BF40F259
:102470009C33C2F200031B68002B07D0E9204FF009
:102480008041FFF733FF0346002BF0D140F29C332D
:10249000C2F200031B68002B54D07A200021FFF702
:1024A00025FF0346002B4DD10023FB710CE0FC7986
:1024B00009F05CF803461A4607F10803234403F8C1
:1024C000082CFB790133FB71FB79032BEFD93B78A7
:1024D00003F04003002B01D00C2300E004237B71A8
:1024E00030E0E9200021FFF701FF0346012B04D86B
:1024F00002237B71E923BB7103E001237B7141233C
:10250000BB7100BF40F29C33C2F200031B68002B7A
:1025100007D0BB7918460021FFF7E8FE0346002BE1
:10252000F0D140F29C33C2F200031B68002B07D0AD
:1025300050204FF40071FFF7D9FE0346002B01D065
:1025400000237B7140F2A433C2F200037A791A703F
:10255000FFF718FE7B79002B12D040F21403C2F271
:1025600000031B78DBB223F00103DAB240F214035C
:10257000C2F200031A704FF47A6008F041FF01E0E4
:10258000FFF716FE40F21403C2F200031B78DBB221
:1025900018460C37BD4690BD80B400AF40F214031E
:1025A000C2F200031B78DBB21846BD465DF8047B1F
:1025B000704700BF80B584B000AFF860B9601346C3
:1025C000FB71FB79002B01D1042352E040F214038C
:1025D000C2F200031B78DBB203F00103002B01D031
:1025E000032346E040F2A433C2F200031B7803F059
:1025F0000803002B02D1BB685B02BB60FB79012B97
:1026000011D15120B968FFF771FE0346002B28D184
:10261000F8684FF40071FFF7DFFD0346002B20D070
:102620000023FB711DE05220B968FFF75FFE0346EF
:10263000002B16D1F8684FF40071FFF7CDFD03466B
:10264000002B00D109E0FB6803F50073FB60FB7908
:10265000013BFB71FB79002BECD14C200021FFF7F3
:1026600045FEFFF78FFDFB79002B0CBF00230123F4
:10267000DBB218461037BD4680BD00BF80B584B0C0
:1026800000AFF860B9601346FB71FB79002B01D1F4
:1026900004236FE040F21403C2F200031B78DBB2A4
:1026A00003F00103002B01D0032363E040F2140385
:1026B000C2F200031B78DBB203F00403002B01D04D
:1026C000022357E040F2A433C2F200031B7803F068
:1026D0000803002B02D1BB685B02BB60FB79012BB6
:1026E00010D15820B968FFF701FE0346002B39D1FD
:1026F000F868FE21FFF7BAFD0346002B32D0002315
:10270000FB712FE040F2A433C2F200031B7803F008
:102710000603002B04D0FB79D7201946FFF7E6FD0E
:102720005920B968FFF7E2FD0346002B1AD1F8687B
:10273000FC21FFF79BFD0346002B00D109E0FB685D
:1027400003F50073FB60FB79013BFB71FB79002B08
:10275000EDD10020FD21FFF789FD0346002B01D1BB
:102760000123FB71FFF70EFDFB79002B0CBF00234B
:102770000123DBB218461037BD4680BD90B58BB043
:1027800000AF03463960FB713B683B62012387F869
:102790002730FB79052B20D13B6A1B78012B09D010
:1027A000022B0DD0002B13D1FFF702FD002387F879
:1027B000273011E0FFF7F0FC002387F827300BE00B
:1027C0003B6A013301221A70002387F8273003E0A7
:1027D000042387F8273082E181E140F21403C2F23A
:1027E00000031B78DBB203F00103002B01D00323AD
:1027F00077E1FB790E2B00F26D8101A252F823F0F4
:102800003D28000859280008052900081529000856
:10281000D52A0008D52A0008D52A0008D52A00089C
:10282000D52A0008D52A0008092A00081F2A00080E
:10283000452A00086B2A0008AB2A00081C20012149
:1028400007F0A0FFFFF780FC0346FF2B03D1002316
:1028500087F8273041E140E149200021FFF746FD9C
:102860000346002B4DD107F10C0318461021FFF74A
:10287000B3FC0346002B44D03B7B9B09DBB2012B0E
:102880000DD17B7D1A463B7D1B029BB213449BB24C
:102890000133FB83FB8B9A023B681A602DE07B7C43
:1028A00003F00F03DAB2BB7DDB09DBB21344DAB20B
:1028B0007B7D03F00303DBB25B00DBB21344DBB2CE
:1028C000023387F826303B7D9B09DBB21A46FB7C3E
:1028D0009B009BB213449AB2BB7C03F003039BB2F0
:1028E0009B029BB213449BB20133FB83FA8B97F894
:1028F0002630093B9A403B681A60002387F827304E
:10290000EBE0EAE03B684FF400721A80002387F89E
:102910002730E2E040F2A433C2F200031B7803F058
:102920000403002B2BD0CD200021FFF7DFFC034652
:10293000002B68D108F01AFE07F10C03184610218D
:10294000FFF74AFC0346002B5DD0302387F8263082
:1029500006E008F00BFE97F82630013B87F826309A
:1029600097F82630002BF4D1BB7D1B09DBB2102277
:102970009A403B681A60002387F82730ADE0492071
:102980000021FFF7B3FC0346002B3CD107F10C03F9
:1029900018461021FFF720FC0346002B33D040F2ED
:1029A000A433C2F200031B7803F00203002B12D001
:1029B000BB7D03F03F035A00FB7DDB09DBB2134410
:1029C0005A1C7B7E9B09DBB2013B02FA03F31A46D9
:1029D0003B681A6013E0BB7D03F07C039B109BB245
:1029E0000133FA7D02F00302D100FA7D5209D2B21E
:1029F0000A44013202FB03F31A463B681A600023C3
:102A000087F8273069E068E040F2A433C2F200039F
:102A10001A783B6A1A70002387F827305DE0492056
:102A20000021FFF763FC0346002B0AD1386A10210E
:102A3000FFF7D2FB0346002B03D0002387F8273093
:102A40004BE04AE04A200021FFF750FC0346002BF0
:102A50000AD1386A1021FFF7BFFB0346002B03D0D1
:102A6000002387F8273038E037E07A200021FFF78D
:102A70003DFC0346002B17D1042387F826300BE0DA
:102A80003C6A631C3B6208F071FD0346237097F8B3
:102A90002630013B87F8263097F82630002BEFD1FF
:102AA000002387F8273018E017E0CD200021FFF73A
:102AB0001DFC0346002B0CD108F058FD386A40215C
:102AC000FFF78AFB0346002B03D0002387F827304B
:102AD00003E002E0042387F82730FFF753FB97F861
:102AE000273018462C37BD4690BD00BF90B583B047
:102AF00000AF40F29C33C2F200031B68BB71BB798C
:102B0000002B08D0BB79013BBB71BA7940F29C33F2
:102B1000C2F200031A6040F2A033C2F200031B6845
:102B2000BB71BB79002B08D0BB79013BBB71BA7973
:102B300040F2A033C2F200031A6040F2A833C2F29E
:102B400000031B683B60FFF7EFFA0446FFF7F4FA57
:102B5000034644EA030240F2A833C2F200031A60BB
:102B600040F2A833C2F200031B683A689A422FD1A0
:102B700040F21403C2F200031B78FB7140F2A83349
:102B8000C2F200031B6803F00203002B04D0FB79A0
:102B900043F00403FB7103E0FB7923F00403FB71B2
:102BA00040F2A833C2F200031B6803F00103002BBC
:102BB00004D0FB7923F00203FB7103E0FB7943F0BF
:102BC0000303FB7140F21403C2F20003FA791A7096
:102BD0000C37BD4690BD00BF80B584B000AF034642
:102BE000FB71FA7940F2CC53C2F2000353F8223061
:102BF0001B6898470346FB73FB7B18461037BD469E
:102C000080BD00BF80B584B000AF0346FB71FA7988
:102C100040F2CC53C2F2000353F822305B6898476D
:102C20000346FB73FB7B18461037BD4680BD00BFD3
:102C300080B586B000AFB9607A600246FA73BB73A4
:102C4000FA7B40F2CC53C2F2000353F822309B6867
:102C5000BA7BB868796898470346FB75FB7D1846D0
:102C60001837BD4680BD00BF80B586B000AFB960E3
:102C70007A600246FA73BB73FA7B40F2CC53C2F21D
:102C8000000353F82230DB68BA7BB868796898474C
:102C90000346FB75FB7D18461837BD4680BD00BF57
:102CA00080B584B000AF0B463A600246FA71BB7142
:102CB000FA7940F2CC53C2F2000353F822301B6978
:102CC000BA791046396898470346FB73FB7B184670
:102CD0001037BD4680BD00BF80B400AF002318464A
:102CE000BD465DF8047B704780B487B000AFF860E4
:102CF000B9607A60FB687B61BB683B6107E07B6918
:102D00005A1C7A613A69511C396112781A707B68D1
:102D10005A1E7A60002BF2D11C37BD465DF8047B49
:102D2000704700BF80B487B000AFF860B9607A60C8
:102D3000FB687B6105E07B695A1C7A61BA68D2B294
:102D40001A707B685A1E7A60002BF4D11C37BD467E
:102D50005DF8047B704700BF80B489B000AFF860B5
:102D6000B9607A60FB68FB61BB68BB6100237B6173
:102D700000BF7B685A1E7A60002B0DD0FB695A1C7D
:102D8000FA611B781A46BB69591CB9611B78D31AC2
:102D90007B617B69002BECD07B6918462437BD46EC
:102DA0005DF8047B704700BF80B483B000AF7860EB
:102DB000396002E07B6801337B607B681B78002B05
:102DC00005D07B681B785AB23B689A42F2D17B6887
:102DD0001B785BB218460C37BD465DF8047B704724
:102DE00080B485B000AF786039600023BB60BB68F9
:102DF000FB6044E040F2B432C2F20002F9680B46D4
:102E00005B000B449B0013441B68002B32D040F244
:102E1000B432C2F20002F9680B465B000B449B001F
:102E200013441A687B68D3F800329A4224D140F2E6
:102E3000B432C2F20002F9680B465B000B449B00FF
:102E4000134404331A687B68D3F808329A4213D1CA
:102E500040F2B432C2F20002F9680B465B000B4448
:102E60009B00134408331A887B68B3F806329A42F1
:102E700002D107E00123BB60FB680133FB60FB6804
:102E8000012BB7D9FB68022B09D1BB68002B02D1FB
:102E90003B68022B01D1002316E0122314E03B68AB
:102EA000002B0ED140F2B432C2F20002F9680B4698
:102EB0005B000B449B00134408335B88B3F5807FB1
:102EC00001D1102300E0002318461437BD465DF8F9
:102ED000047B704780B483B000AF00237B6002E0C6
:102EE0007B6801337B607B68012B0CD840F2B432E5
:102EF000C2F2000279680B465B000B449B0013444E
:102F00001B68002BECD17B68022B0CBF0023012334
:102F1000DBB218460C37BD465DF8047B704700BF36
:102F200080B485B000AF786039600023FB6035E085
:102F300040F2B432C2F20002F9680B465B000B4467
:102F40009B0013441A687B68D3F800329A4222D15E
:102F500040F2B432C2F20002F9680B465B000B4447
:102F60009B00134404331A687B68D3F808329A42F2
:102F700011D140F2B432C2F20002F9680B465B0094
:102F80000B449B00134408331A887B68B3F806325D
:102F90009A4200D105E0FB680133FB60FB68012B1E
:102FA000C6D9FB68022B54D10023FB6002E0FB680A
:102FB0000133FB60FB68012B0CD840F2B432C2F243
:102FC0000002F9680B465B000B449B0013441B682E
:102FD000002BECD1FB68022B01D100236FE07B6852
:102FE000D3F8000240F2B432C2F20002F9680B4694
:102FF0005B000B449B00134418607B68D3F8080205
:1030000040F2B432C2F20002F9680B465B000B4496
:103010009B001344043318607B68B3F8060240F247
:10302000B432C2F20002F9680B465B000B449B000D
:103030001344083302461A8040F2B432C2F200024E
:10304000F9680B465B000B449B00134408330022D5
:103050005A803B68002B0FD040F2B432C2F200021B
:10306000F9680B465B000B449B00134408335B88F4
:10307000002B01D0002322E03B68002B0ED140F250
:10308000B432C2F20002F9680B465B000B449B00AD
:10309000134408335B88013399B201E04FF4807127
:1030A00040F2B432C2F20002F86803465B00034407
:1030B0009B00134408330A465A80FB6801331846C4
:1030C0001437BD465DF8047B704700BF80B485B0FF
:1030D00000AF78607B68013B7B607B68012B37D851
:1030E00040F2B432C2F2000279680B465B000B4436
:1030F0009B00134408335B88FB81FB89B3F5807F19
:1031000001D10023FB81FB89002B02D0FB89013B0D
:10311000FB8140F2B432C2F2000279680B465B00D8
:103120000B449B0013440833FA895A80FB89002B17
:103130000BD140F2B432C2F2000279680B465B0058
:103140000B449B00134400221A6000237B7301E0B0
:1031500002237B737B7B18461437BD465DF8047BE6
:10316000704700BF80B485B000AF78600023FB607B
:103170001CE040F2B432C2F20002F9680B465B0078
:103180000B449B0013441A687B689A420BD140F2AF
:10319000B432C2F20002F9680B465B000B449B009C
:1031A000134400221A60FB680133FB60FB68012BAB
:1031B000DFD91437BD465DF8047B704780B584B015
:1031C00000AF78607B6893F80432002B3BD07B68BB
:1031D000D3F82C32FB607B6893F801227B681046A1
:1031E0001946FA680123FFF73FFD0346002B01D083
:1031F000012329E07B68002283F804227B68D3F84E
:103200002032FA68D21A7B68D3F818329A421AD25E
:103210007B6893F80332BB6012E07B68D3F8183206
:10322000FA681344FB607B6893F801227B681046C0
:103230001946FA680123FFF717FDBB68013BBB6025
:10324000BB68012BE9D8002318461037BD4680BD66
:1032500080B582B000AF786039607B68D3F82C22EB
:103260003B689A421AD07868FFF7A8FF0346002B04
:1032700001D0012313E07B6893F801227B6810469C
:1032800019463A680123FFF7D3FC0346002B01D00F
:10329000012304E07B683A68C3F82C220023184617
:1032A0000837BD4680BD00BF80B584B000AF7860F0
:1032B0007868FFF783FF0346FB73FB7B002B40F02E
:1032C0009E807B6893F80032032B40F08B807B68F4
:1032D00093F80532012B40F085807B681846002169
:1032E0004FF40072FFF71EFD7B68552283F8FE2124
:1032F0007B68AA2283F8FF217B6852221A707B68C0
:1033000052225A707B6861229A707B684122DA707F
:103310007B68722283F8E4217B68722283F8E521BE
:103320007B68412283F8E6217B68612283F8E721EC
:103330007B68D3F81032DAB27B6883F8E8217B68C7
:10334000D3F810329BB21B0A9BB2DAB27B6883F8C7
:10335000E9217B68D3F810321B0CDAB27B6883F862
:10336000EA217B68D3F810321B0EDAB27B6883F84F
:10337000EB217B68D3F80C32DAB27B6883F8EC215E
:103380007B68D3F80C329BB21B0A9BB2DAB27B6823
:1033900083F8ED217B68D3F80C321B0CDAB27B6822
:1033A00083F8EE217B68D3F80C321B0EDAB27B680F
:1033B00083F8EF217B68D3F81C325A1C7B68C3F872
:1033C0002C227B6893F801127A687B68D3F82C3240
:1033D000084611461A460123FFF746FC7B68002287
:1033E00083F805227B6893F80132184600210022F9
:1033F000FFF756FC0346002B01D00123FB73FB7B38
:1034000018461037BD4680BD80B483B000AF7860E9
:1034100039603B68023B3B607B68D3F814329A1EEC
:103420003B689A4201D8002309E07B6893F8023296
:103430003A6802FB03F27B68D3F82832134418463B
:103440000C37BD465DF8047B704700BF80B586B081
:1034500000AF786039603B68012B05D97B68D3F8F1
:1034600014223B689A4201D8012395E07B6893F8C7
:103470000032022B45D0032B63D0012B40F08A8011
:103480003B687B617B695B087A6913447B617B687D
:10349000D3F820227B695B0A134478681946FFF74A
:1034A000D7FE0346002B00D074E07B69C3F308030A
:1034B0007A68D35C3B617B6901337B617B68D3F8BD
:1034C00020227B695B0A134478681946FFF7C0FE27
:1034D0000346002B00D05DE07B69C3F308037A68E4
:1034E000D35C1B023A6913433B613B6803F0010361
:1034F000002B02D03B691B0902E03B69C3F30B03BD
:103500004AE07B68D3F820223B681B0A13447868A2
:103510001946FFF79DFE0346002B00D03AE03B68BA
:103520005B0003F4FF737A681344FB60FB680133AC
:103530001B781B029AB2FB681B7813439BB29BB2A9
:103540002AE07B68D3F820223B68DB0913447868C3
:103550001946FFF77DFE0346002B00D01AE03B68BA
:103560009B0003F4FE737A681344FB60FB6803332B
:103570001B781A06FB6802331B781B041A43FB688E
:1035800001331B781B021A43FB681B78134323F09B
:10359000704301E04FF0FF3318461837BD4680BD39
:1035A00080B588B000AFF860B9607A60BB68012B65
:1035B00005D9FB68D3F81422BB689A4202D80223CB
:1035C000FB77E6E0FB6893F80032022B71D0032B07
:1035D00000F09380012B40F0D680BB68BB61BB69D3
:1035E0005B08BA691344BB61FB68D3F82022BB694E
:1035F0005B0A1344F8681946FFF72AFE0346FB7777
:10360000FB7F002B00D0C0E0BB69C3F30803FA685E
:1036100013447B61BB6803F00103002B0DD07B6971
:103620001B78DBB203F00F03DAB27B68DBB21B015D
:10363000DBB21343DBB2DBB201E07B68DBB27A6959
:103640001370BB690133BB61FB68012283F804225C
:10365000FB68D3F82022BB695B0A1344F86819465B
:10366000FFF7F6FD0346FB77FB7F002B00D08CE0D5
:10367000BB69C3F30803FA6813447B61BB6803F0BA
:103680000103002B03D07B681B09DBB20EE07B69D2
:103690001B78DBB223F00F03DAB27B681B0ADBB2C4
:1036A00003F00F03DBB21343DBB2DBB27A691370B2
:1036B0006BE0FB68D3F82022BB681B0A1344F86850
:1036C0001946FFF7C5FD0346FB77FB7F002B00D0B3
:1036D0005BE0BB685B0003F4FF73FA6813447B6133
:1036E0007B68DAB27B691A707B6901337A6892B2BF
:1036F000120A92B2D2B21A7047E0FB68D3F82022C5
:10370000BB68DB091344F8681946FFF7A1FD0346BF
:10371000FB77FB7F002B00D037E0BB689B0003F4F6
:10372000FE73FA6813447B617B6903331B781A06C6
:103730007B6902331B781B041A437B6901331B78B6
:103740001B021A437B691B78134303F070437A68AA
:1037500013437B607B68DAB27B691A707B69013343
:103760007A6892B2120A92B2D2B21A707B690233AC
:103770007A68120CD2B21A707B6903337A68120E1F
:10378000D2B21A7001E00223FB77FB68012283F8B2
:103790000422FB7F18462037BD4680BD80B584B02B
:1037A00000AF786039603B68012B05D97B68D3F89E
:1037B00014223B689A4202D80223FB7341E00023A3
:1037C000FB7338E078683968FFF740FEB860BB6883
:1037D000002B00D135E0BB68012B02D10223FB7323
:1037E0002FE0BB68B3F1FF3F02D10123FB7328E058
:1037F000786839680022FFF7D3FE0346FB73FB7B32
:10380000002B00D01DE07B68D3F81032B3F1FF3FEE
:103810000FD07B68D3F810325A1C7B68C3F8102293
:103820007B6893F8053243F00103DAB27B6883F8D2
:103830000522BB683B607B68D3F814223B689A4240
:10384000C0D8FB7B18461037BD4680BD80B586B01A
:1038500000AF786039603B68002B0FD17B68D3F8EC
:103860000C323B613B69002B05D07B68D3F81422F6
:103870003B699A4216D801233B6113E078683968A6
:10388000FFF7E4FDB860BB68012B01D8012372E0AB
:103890007B68D3F81422BB689A4201D9BB686AE0FE
:1038A0003B683B613B697B617B6901337B617B6882
:1038B000D3F814227B699A4207D802237B617A6984
:1038C0003B699A4201D9002355E078687969FFF78E
:1038D000BDFDB860BB68002B0CD100BF786879696A
:1038E0006FF07042FFF75CFE0346FB73FB7B002B1F
:1038F0001AD10FE0BB68B3F1FF3F02D0BB68012BC8
:1039000001D1BB6837E07A693B699A4201D1002353
:1039100031E0C9E73B68002B06D0786839687A69DE
:10392000FFF73EFE0346FB73FB7B002B1AD17B683F
:103930007A69C3F80C227B68D3F81032B3F1FF3FE9
:1039400018D07B68D3F810325A1E7B68C3F8102257
:103950007B6893F8053243F00103DAB27B6883F8A1
:10396000052207E0FB7B012B02D14FF0FF3300E083
:1039700001237B617B6918461837BD4680BD00BFB7
:1039800080B487B000AF786039607B68D3F82432A8
:1039900004333B613B685A0A7B68D3F8003293F8E2
:1039A0000232B2FBF3F37B613B691A1D3A611B687B
:1039B000FB60FB68002B01D1002311E07A69FB68F2
:1039C0009A4205D200BF3B691A687B69134407E03D
:1039D0007A69FB68D31A7B613B6904333B61E3E797
:1039E00018461C37BD465DF8047B704780B584B02F
:1039F00000AF78600B467B807B687A88A3F806224C
:103A00007B68D3F80832FB60FB68012B07D07B682A
:103A1000D3F80032D3F81422FB689A4201D802236B
:103A200077E0FB68002B0CD17B68D3F8003293F869
:103A30000032032B05D17B68D3F80032D3F824324F
:103A4000FB60FB68002B1AD17B68FA68C3F80C2274
:103A50007B68D3F80032B3F808327A889A4201D3EF
:103A6000022356E07B68D3F80032D3F824227B8807
:103A70001B099BB21A447B68C3F810223DE07B68A7
:103A8000D3F8003293F802321B017B811EE07B6881
:103A9000D3F800321846F968FFF7D8FCF860FB68E5
:103AA000B3F1FF3F01D1012333E0FB68012B07D9BC
:103AB0007B68D3F80032D3F81422FB689A4201D80D
:103AC000022326E07A887B89D31A7B807A887B89D7
:103AD0009A42DCD27B68FA68C3F80C227B68D3F880
:103AE00000321846F968FFF78FFC02467B881B09F5
:103AF0009BB21A447B68C3F810227B68D3F800227B
:103B00007B8803F00F035B011A447B68C3F814221F
:103B1000002318461037BD4680BD00BF90B585B064
:103B200000AF786039607B68B3F8063201333B81BF
:103B30003B89002B04D07B68D3F81032002B01D1D5
:103B40000423DCE03B8903F00F039BB2002B40F021
:103B5000C6807B68D3F810325A1C7B68C3F81022E9
:103B60007B68D3F80C32002B0AD17B68D3F8003283
:103B7000B3F808323A899A42C0F0B1800423BEE01B
:103B80003B891B099BB21A467B68D3F8003293F835
:103B90000232013B1340002B40F0A1807B68D3F838
:103BA00000227B68D3F80C3210461946FFF74EFC12
:103BB000F860FB68012B01D80223A0E0FB68B3F199
:103BC000FF3F01D101239AE07B68D3F80032D3F89C
:103BD0001422FB689A4273D83B68002B01D104235E
:103BE0008DE07B68D3F800227B68D3F80C32104656
:103BF0001946FFF72BFEF860FB68002B01D1072365
:103C00007DE0FB68012B01D1022378E0FB68B3F172
:103C1000FF3F01D1012372E07B68D3F800321846E0
:103C2000FFF7CCFA0346002B01D0012367E07B6845
:103C3000D3F80032184600214FF40072FFF772F8F3
:103C40007B68D3F800427B68D3F800321846F968E5
:103C5000FFF7DAFB0346C4F82C320023FB721BE0AB
:103C60007B68D3F80032012283F804227B68D3F802
:103C700000321846FFF7A2FA0346002B01D00123B9
:103C80003DE07B68D3F80032D3F82C220132C3F830
:103C90002C22FB7A0133FB727B68D3F8003293F855
:103CA0000232FA7A9A42DBD37B68D3F800327A6820
:103CB000D2F80022D2F82C12FA7A8A1AC3F82C22EF
:103CC0007B68FA68C3F80C227B68D3F80032184688
:103CD000F968FFF799FB02467B68C3F810227B68FE
:103CE0003A89A3F806227B68D3F800223B8903F0C7
:103CF0000F035B011A447B68C3F8142200231846A3
:103D00001437BD4690BD00BF80B584B000AF786069
:103D1000396078680021FFF769FE0346FB73FB7B7F
:103D2000002B31D10023BB607B68D3F800227B6875
:103D3000D3F8103210461946FFF78AFA0346FB7390
:103D4000FB7B002B00D01FE07B68D3F814321B787C
:103D5000E52B05D07B68D3F814321B78002B08D1F3
:103D6000BB680133BB60BA683B689A4200D10BE084
:103D700001E00023BB6078680121FFF7CFFE034616
:103D8000FB73FB7B002BCFD0FB7B042B01D10723E4
:103D9000FB73FB7B18461037BD4680BD80B485B0F1
:103DA00000AF786039603B681B331B781B029AB206
:103DB0003B681A331B7813439BB29BB2FB607B6852
:103DC00093F80032032B0ED13B6815331B781B028E
:103DD0009AB23B6814331B7813439BB29BB21B040B
:103DE000FA681343FB60FB6818461437BD465DF85C
:103DF000047B704780B483B000AF786039607B6823
:103E00001A333A68D2B21A707B681B333A6892B29E
:103E1000120A92B2D2B21A707B6814333A68120C4A
:103E2000D2B21A707B6815333A68120C92B2120A39
:103E300092B2D2B21A700C37BD465DF8047B70475F
:103E400080B586B000AF786039603B681B7823F09E
:103E500040035A1E13465B0013449B0013447B61CE
:103E600000233B610123FB814DF2EC33C0F60003DC
:103E70003A6913441B7801333A6813441B781B02D8
:103E80009AB24DF2EC33C0F6000339690B441B784B
:103E900039680B441B7813439BB2BB81FB89002B11
:103EA00018D0BB891846FEF709F90346FB817B69E8
:103EB000FE2B0DD87B695A1C7A615B007A6813442B
:103EC0001B881846FEF7FAF80346FA899A4208D08A
:103ED00000231FE0BA894FF6FF739A4201D00023F6
:103EE00018E03B6901333B613B690C2BBCD93B6853
:103EF0001B7803F04003002B0BD0FB89002B08D06C
:103F00007B695B007A6813441B88002B01D0002377
:103F100000E0012318461837BD4680BD80B487B045
:103F200000AF786039603B681B7803F03F035A1E8E
:103F300013465B0013449B0013447B6100233B61E9
:103F40000123FB814DF2EC33C0F600033A691344C0
:103F50001B7801333A6813441B781B029AB24DF266
:103F6000EC33C0F6000339690B441B7839680B4405
:103F70001B7813439BB2BB81FB89002B0FD07B695D
:103F8000FE2B01D9002329E07B695A1C7A615B0072
:103F90007A681344BA89FA81FA891A8006E0BA89E4
:103FA0004FF6FF739A4201D0002317E03B690133BB
:103FB0003B613B690C2BC5D93B681B7803F0400380
:103FC000002B0AD07B69FE2B01D9002306E07B6918
:103FD0005B007A68134400221A80012318461C37BC
:103FE000BD465DF8047B704780B489B000AFF860CF
:103FF000B960FA71BB71BB680D33BA791A70BB68CE
:104000000B330F221A70BB680C3300221A70BB6886
:104010001A3300221A70BB681B3300221A70FB7916
:104020005A1E13465B0013449B001344FB6100239C
:10403000FB820023BB61FA8A4FF6FF739A4207D0D6
:10404000FB695A1CFA615B00FA6813441B88FB8207
:104050004DF2EC33C0F60003BA6913441B78BA681A
:104060001344FA8AD2B21A704DF2EC33C0F6000350
:10407000BA6913441B780133BA681344FA8A120AE6
:1040800092B2D2B21A70FB8A002B02D14FF6FF73A4
:10409000FB82BB690133BB61BB690C2BCBD9FA8AAC
:1040A0004FF6FF739A4206D0FB695B00FA6813442F
:1040B0001B88002B03D1FB7943F04003FB71BB68E5
:1040C000FA791A702437BD465DF8047B704700BF4B
:1040D00080B58AB000AFF860B9607A607B80F8681C
:1040E000B9680B22FEF700FE7B88052B0FD97B8871
:1040F0009AB25208DB0313439AB27B68991C796029
:104100001B8813447B807B681B88002BEFD107231F
:104110003B627B88DBB203F00F03DBB2303387F8FE
:10412000273097F82730392B04D997F827300733F1
:1041300087F827303B6A5A1E3A6207F128010B4480
:1041400097F8272003F8142C7B881B097B807B8839
:10415000002BDED107F114023B6A13447E221A7051
:104160000023FB6102E0FB690133FB61FA693B6AF2
:104170009A4205D2FA68FB6913441B78202BF2D1CE
:10418000FB695A1CFA61FA681A443B6A072B08D883
:104190003B6A591C396207F128010B4413F8143C9F
:1041A00000E020231370FB69072BE9D92837BD46AF
:1041B00080BD00BF80B485B000AF78600023FB7382
:1041C0000B23BB60FB7BDAB25208DB011343DAB28C
:1041D0007B68591C79601B781344FB73BB68013BF7
:1041E000BB60BB68002BEDD1FB7B18461437BD4686
:1041F0005DF8047B704700BF80B586B000AF786083
:1042000078680021FFF7F2FB0346FB75FB7D002B6E
:1042100001D0FB7D9DE0FF233B753B7D7B757B687B
:10422000D3F800227B68D3F8103210461946FFF706
:104230000FF80346FB75FB7D002B00D088E07B6800
:10424000D3F814323B613B691B78BB75BB7D002BF7
:1042500002D10423FB757BE03B690B331B7803F031
:104260003F03FB73BB7DE52B07D0FB7B03F008030B
:10427000002B05D0FB7B0F2B02D0FF237B755DE06D
:10428000FB7B0F2B33D17B68D3F82032002B55D02A
:10429000BB7D03F04003002B0ED03B695B7B3B757D
:1042A000BB7D23F04003BB75BB7D7B757B68B3F89A
:1042B00006227B68A3F82422BA7D7B7D9A4213D123
:1042C0003B690D331B783A7D9A420DD17B68D3F858
:1042D000203218463969FFF7B3FD0346002B03D09F
:1042E0007B7D013BDBB200E0FF237B7526E07B7D1D
:1042F000002B07D13869FFF75DFF03463A7D9A42EC
:1043000000D125E0FF237B757B684FF6FF72A3F891
:1043100024227B68D3F818320B331B7803F0010397
:10432000002B0BD17B68D3F81832386919460B2261
:10433000FEF712FD0346002B00D109E0786800214A
:10434000FFF7ECFB0346FB75FB7D002B3FF467AFEB
:10435000FB7D18461837BD4680BD00BF80B586B0CE
:1043600000AF78603960FF237B75FF233B75042322
:10437000FB7582E07B68D3F800227B68D3F81032AB
:1043800010461946FEF764FF0346FB75FB7D002BC4
:1043900000D078E07B68D3F814323B613B691B782E
:1043A000BB75BB7D002B02D10423FB756BE03B6921
:1043B0000B331B7803F03F03FB73BB7DE52B0CD065
:1043C000BB7D2E2B09D0FB7B082B14BF00230123C0
:1043D000DBB21A463B689A4202D0FF237B7542E06B
:1043E000FB7B0F2B2ED1BB7D03F04003002B0ED0A7
:1043F0003B695B7B3B75BB7D23F04003BB75BB7D9D
:104400007B757B68B3F806227B68A3F82422BA7D0B
:104410007B7D9A4213D13B690D331B783A7D9A42DA
:104420000DD17B68D3F8203218463969FFF776FD45
:104430000346002B03D07B7D013BDBB200E0FF2372
:104440007B7510E07B7D002B06D13869FFF7B2FE4B
:1044500003463A7D9A4205D07B684FF6FF72A3F877
:10446000242210E00FE078680021FFF757FB034695
:10447000FB75FB7D002B00D005E07B68D3F8103284
:10448000002B7FF477AFFB7D002B03D07B680022ED
:10449000C3F81022FB7D18461837BD4680BD00BF0B
:1044A00080B58AB000AF78607B68D3F81832FB61C2
:1044B0007B68D3F82032BB6107F108031846F9691D
:1044C0000C22FEF711FCFB7C03F00103002B37D01C
:1044D000FB690B3300221A707B680022C3F820228C
:1044E0000123BB8415E007F10802BB8CF869114673
:1044F000BA69FFF7EDFD7868FFF77EFE034687F89F
:10450000273097F82730002B00D005E0BB8C013313
:10451000BB84BB8C632BE6D9BB8C642B01D10723F6
:10452000CCE097F82730042B02D097F82730C5E06D
:10453000FB690B33FA7C1A707B68BA69C3F82022D6
:10454000FB7C03F00203002B1AD00023BB8402E0A3
:10455000BB8C0133BB84BB8C5B00BA6913441B88E2
:10456000002BF5D1BB8C03F119024EF64F43C4F674
:10457000C46383FB02139910D317CB1A7B8401E029
:1045800001237B847B8C78681946FFF7BDFB0346CB
:1045900087F8273097F82730002B52D17B8C013BCE
:1045A0007B847B8C002B4CD07B68B3F806227B8C01
:1045B000D31A9BB278681946FFF718FA034687F8B2
:1045C000273097F82730002B3BD17B68D3F818327F
:1045D0001846FFF7EFFD0346FB757B68D3F8002212
:1045E0007B68D3F8103210461946FEF731FE0346B9
:1045F00087F8273097F82730002B00D021E07B6820
:10460000D3F820027B68D3F814127B8CDAB2FB7DDE
:10461000FFF7EAFC7B68D3F80032012283F804221A
:1046200078680021FFF77AFA034687F8273097F871
:104630002730002B05D17B8C013B7B847B8C002BAE
:10464000CBD197F82730002B36D17B68D3F80022E6
:104650007B68D3F8103210461946FEF7F9FD034681
:1046600087F8273097F82730002B25D17B68D3F8BF
:104670001432184600212022FEF754FB7B68D3F841
:1046800014227B68D3F81832104619460B22FEF725
:104690002BFB7B68D3F814320C337A68D2F81822DB
:1046A0000B32127802F01802D2B21A707B68D3F87B
:1046B0000032012283F8042297F827301846283761
:1046C000BD4680BD80B584B000AF78607B68B3F82C
:1046D0000632BB817B68B3F824224FF6FF739A42FF
:1046E00003D07B68B3F8243200E0BB8978681946B0
:1046F000FFF77CF90346FB73FB7B002B2FD17B6814
:10470000D3F800227B68D3F8103210461946FEF722
:104710009FFD0346FB73FB7B002B00D01AE07B68F8
:10472000D3F81432E5221A707B68D3F800320122E4
:1047300083F804227B68B3F80632BA899A4200D81B
:1047400008E078680021FFF7E9F90346FB73FB7B7B
:10475000002BD4D0FB7B042B01D10223FB73FB7B0A
:1047600018461037BD4680BD80B58AB000AF78606E
:1047700039603B681B683B6102E03B6901333B6188
:104780003B691B785BB22F2BF7D03B691B785BB280
:104790005C2BF2D07B68D3F82032FB6000237B6176
:1047A0007B69BB61BB695A1CBA613A6913441B78C7
:1047B0005BB2BB84BB8C1F2B32D9BB8C2F2B2FD071
:1047C000BB8C5C2B2CD07B69FE2B01D9062384E1AA
:1047D000BB8CDBB2BB84BB8C18460121FDF72EFCE1
:1047E0000346BB84BB8C002B01D1062375E1BB8C37
:1047F0007F2B0CD8BB8C4CF26C50C0F600001946D5
:10480000FEF7D2FA0346002B01D0062365E17B694F
:104810005A1C7A615B00FA681344BA8C1A80C1E7AB
:104820003A69BB691A443B681A60BB8C1F2B01D8DC
:10483000042300E0002387F8263012E07B6903F1AF
:104840000043013B5B00FA6813441B88BB84BB8CAC
:10485000202B03D0BB8C2E2B00D005E07B69013BC5
:104860007B617B69002BE9D17B69002B01D1062399
:1048700033E17B695B00FA68134400221A807B688D
:10488000D3F81832184620210B22FEF74BFA0023EA
:10489000BB6102E0BB690133BB61BB695B00FA68C5
:1048A00013441B88202BF5D0BB695B00FA681344C6
:1048B0001B882E2BEED0BB69002B06D097F8263034
:1048C00043F0030387F8263003E002E07B69013BF5
:1048D0007B617B69002B09D07B6903F10043013BBD
:1048E0005B00FA6813441B882E2BEFD100233B6238
:1048F000002387F827300823FB61BB695A1CBA6183
:104900005B00FA6813441B88BB84BB8C002B00D16E
:1049100098E0BB8C202B06D0BB8C2E2B0AD1BA6919
:104920007B699A4206D097F8263043F0030387F854
:10493000263086E03A6AFB699A4203D2BA697B69FB
:104940009A4224D1FB690B2B06D197F8263043F00D
:10495000030387F8263075E0BA697B699A4205D06F
:1049600097F8263043F0030387F82630BA697B694D
:104970009A4200D966E07B69BB6108233B620B2346
:10498000FB6197F827309B0087F8273059E0BB8CF4
:104990007F2B18D9BB8C18460021FDF74FFB03462F
:1049A000BB84BB8C002B08D0BB8CA3F180024DF2E2
:1049B0006C33C0F600039B5CBB8497F8263043F051
:1049C000020387F82630BB8C002B0AD0BB8C4CF23C
:1049D0007850C0F600001946FEF7E6F90346002BB2
:1049E00008D05F23BB8497F8263043F0030387F891
:1049F00026301BE0BB8C402B09D9BB8C5A2B06D828
:104A000097F8273043F0020387F827300EE0BB8C7D
:104A1000602B0BD9BB8C7A2B08D897F8273043F042
:104A2000010387F82730BB8C203BBB847B68D3F81D
:104A300018223B6A591C39621344BA8CD2B21A70DC
:104A40005BE75AE77B68D3F818321B78E52B04D173
:104A50007B68D3F8183205221A70FB69082B04D141
:104A600097F827309B0087F8273097F8273003F016
:104A70000C030C2B05D097F8273003F00303032B0E
:104A800005D197F8263043F0020387F8263097F8CF
:104A9000263003F00203002B17D197F8273003F0DC
:104AA0000303012B05D197F8263043F0100387F854
:104AB000263097F8273003F00C03042B05D197F824
:104AC000263043F0080387F826307B68D3F8183285
:104AD0000B3397F826201A70002318462837BD4656
:104AE00080BD00BF80B588B000AF786039603B689A
:104AF0000933BB617B68D3F81032002B73D07B681D
:104B0000D3F81432FB600023FB6137E0FB695A1CC9
:104B1000FA61FA6813441B78FB7597F91730202B5C
:104B200000D12BE097F91730052B01D1E523FB7558
:104B3000FB69092B04D1BB695A1CBA612E221A7079
:104B400097F91730402B14DD97F917305A2B10DCEA
:104B5000FB680C331B781A46FB69082B01D910231C
:104B600000E008231340002B03D0FB7D2033DBB291
:104B7000FB75BB695A1CBA61FA7D1A70FB690A2B76
:104B8000C4D9FB68DA7A3B681A72FB681F331B785A
:104B90001A06FB681E331B781B041A43FB681D337F
:104BA0001B781B021A43FB681C331B781A433B68B3
:104BB0001A60FB6819331B781B029AB2FB68183322
:104BC0001B7813439BB29AB23B689A80FB681733F9
:104BD0001B781B029AB2FB6816331B7813439BB2F7
:104BE0009AB23B68DA80BB6900221A703B689B6905
:104BF000002B44D00023FB613B689B69BB617B6851
:104C0000D3F81032002B35D03B68DB69002B31D054
:104C10007B68B3F824224FF6FF739A422AD07B6850
:104C2000D3F820323B611DE07B8918460021FDF757
:104C300005FA03467B817B89002B02D10023FB61AF
:104C400018E03B68DB695A1EFB699A4202D80023D0
:104C5000FB610FE0FB695A1CFA61BA6913447A8957
:104C6000D2B21A703B699A1C3A611B887B817B899E
:104C7000002BD9D1BA69FB69134400221A7020377E
:104C8000BD4680BD80B485B000AF78604FF0FF3383
:104C9000FB607B681B68002B1ED07B681B681B7841
:104CA0005BB2303BFB60FB68082B13D87B681B684A
:104CB00001331B785BB23A2B0CD17B681B689A1CC2
:104CC0007B681A60FB68002B03DD4FF0FF33FB604D
:104CD00002E001E00023FB60FB6818461437BD4684
:104CE0005DF8047B704700BF80B584B000AF78608A
:104CF00039603B681B785BB22F2B04D03B681B7874
:104D00005BB25C2B02D13B6801333B607B680022C5
:104D1000C3F808223B681B78DBB21F2B0AD87868DF
:104D20000021FEF763FE0346FB737B680022C3F895
:104D3000142243E03B4678681946FFF715FD034609
:104D4000FB73FB7B002B00D038E07868FFF754FA48
:104D50000346FB737B68D3F81832DB7ABB73FB7BAB
:104D6000002B0BD0FB7B042B07D1BB7B03F0040390
:104D7000002B02D10523FB7320E01FE0BB7B03F077
:104D80000403002B00D019E07B68D3F81432BB6019
:104D9000BB680B331B7803F01003002B02D10523F3
:104DA000FB730BE07B68D3F800321846B968FEF756
:104DB000F5FF02467B68C3F80822BBE7FB7B184679
:104DC0001037BD4680BD00BF80B582B000AF7860AF
:104DD00039607B68002283F804227B684FF0FF3241
:104DE000C3F82C2278683968FEF732FA0346002BA4
:104DF00001D003234BE07B6893F8FF311B029AB28A
:104E00007B6893F8FE3113439BB21AB24AF65523DE
:104E1000CFF6FF739A4201D0022338E07B6893F803
:104E200039301A067B6893F838301B041A437B68C4
:104E300093F837301B021A437B6893F836301343DC
:104E400023F07F4244F24613C0F254039A4201D148
:104E500000231CE07B6893F855301A067B6893F8B2
:104E600054301B041A437B6893F853301B021A43D7
:104E70007B6893F85230134323F07F4244F2461389
:104E8000C0F254039A4201D1002300E001231846E6
:104E90000837BD4680BD00BF80B596B000AFF86052
:104EA000B9601346FB71FB6800221A60B868FFF70F
:104EB000E9FEF863FB6B002B01DA0B23B9E240F249
:104EC000AC33C2F20003FA6B53F82230BB63BB6B06
:104ED000002B01D10C23ACE2FB68BA6B1A60BB6BF0
:104EE00093F80032002B1BD0BB6B93F801321846AD
:104EF000FDF788FE034687F8373097F8373003F020
:104F00000103002B0CD1FB79002B07D097F8373029
:104F100003F00403002B01D00A238AE2002388E275
:104F2000BB6B002283F80022FB6BDAB2BB6B83F809
:104F30000122BB6B93F801321846FDF74DFE034684
:104F400087F8373097F8373003F00103002B01D092
:104F500003236EE2FB79002B07D097F8373003F07C
:104F60000403002B01D00A2363E200233B65B86BE6
:104F7000396DFFF729FF034687F8573097F8573008
:104F8000012B55D100233B6429E03B6C1B0103F549
:104F9000DF73BA6B13443B633B6B04331B78002B0A
:104FA00012D03B6B0B331B781A063B6B0A331B7812
:104FB0001B041A433B6B09331B781B021A433B6BE0
:104FC00008331B781A4300E000223B6C9B0007F17A
:104FD00058010B4443F8442C3B6C01333B643B6C5D
:104FE000032BD2D900233B643B6C002B02D03B6CDB
:104FF000013B3B643B6C9B0007F15802134453F8A0
:10500000443C3B653B6D002B05D0B86B396DFFF719
:10501000DBFE034600E0022387F8573097F857304D
:10502000002B05D03B6C01333B643B6C032BE1D977
:1050300097F85730032B01D10123FAE197F8573045
:10504000002B01D00D23F4E1BB6B1B7B1B029AB23A
:10505000BB6BDB7A13439BB21BB2B3F5007F01D06D
:105060000D23E6E1BB6BDB7D1B029AB2BB6B9B7D24
:1050700013439BB29BB2FB64FB6C002B12D1BB6B46
:1050800093F827301A06BB6B93F826301B041A439B
:10509000BB6B93F825301B021A43BB6B93F824308B
:1050A0001343FB64BB6BFA6CC3F81822BB6B1A7C0E
:1050B000BB6B83F80322BB6B93F80332012B06D042
:1050C000BB6B93F80332022B01D00D23B1E1BB6B14
:1050D00093F803321A46FB6C02FB03F3FB64BB6BD1
:1050E0005A7BBB6B83F80222BB6B93F80232002B16
:1050F0000AD0BB6B93F802321A46BB6B93F80232AC
:10510000013B1340002B01D00D2392E1BB6B9B7C34
:105110001B029AB2BB6B5B7C13439BB29AB2BB6B14
:10512000A3F80822BB6BB3F8083203F00F039BB25D
:10513000002B01D00D237CE1BB6B1B7D1B029AB2BF
:10514000BB6BDB7C13439BB29BB2BB64BB6C002B81
:1051500012D1BB6B93F823301A06BB6B93F8223045
:105160001B041A43BB6B93F821301B021A43BB6B21
:1051700093F820301343BB64BB6BDB7B1B029AB2FA
:10518000BB6B9B7B13439BB2FB85FB8D002B01D13B
:105190000D234EE1FA8DFB6C1A44BB6BB3F8083259
:1051A0001B099BB21344BB62BA6CBB6A9A4201D220
:1051B0000D233EE1BA6CBB6AD21ABB6B93F8023284
:1051C000B2FBF3F37B627B6A002B01D10D2330E14C
:1051D000012387F857307A6A40F6F5739A4202D96C
:1051E000022387F857307A6A4FF6F5739A4202D94C
:1051F000032387F857307B6A9A1CBB6BC3F81422D1
:10520000BB6B3A6DC3F81C22FA8D3B6D1A44BB6B25
:10521000C3F820223A6DBB6A1A44BB6BC3F828223C
:1052200097F85730032B21D1BB6BB3F80832002B12
:1052300001D00D23FDE0BB6B93F82F301A06BB6B3A
:1052400093F82E301B041A43BB6B93F82D301B02CE
:105250001A43BB6B93F82C301A43BB6BC3F8242260
:10526000BB6BD3F814329B007B6425E0BB6BB3F8B7
:105270000832002B01D10D23DBE0BB6BD3F82022D9
:10528000FB6C1A44BB6BC3F8242297F85730022BEF
:1052900004D1BB6BD3F814325B000CE0BB6BD3F8CA
:1052A000142213465B0013445A08BB6BD3F8143224
:1052B00003F0010313447B64BB6BD3F818227B6CAF
:1052C00003F2FF135B0A9A4201D20D23B1E0BB6BDC
:1052D0004FF0FF32C3F81022BB6BD3F81022BB6B28
:1052E000C3F80C22BB6B802283F8052297F8573055
:1052F000032B40F08180BB6B93F831301B029AB2D4
:10530000BB6B93F8303013439BB21BB2012B73D1AC
:105310003B6D0133B86B1946FDF79AFF0346002B2E
:105320006AD1BB6B002283F80522BB6B93F8FF3177
:105330001B029AB2BB6B93F8FE3113439BB21AB2B5
:105340004AF65523CFF6FF739A4255D1BB6BDB78F3
:105350001A06BB6B9B781B041A43BB6B5B781B0262
:105360001A43BB6B1B781A4345F25223C4F26113F4
:105370009A4241D1BB6B93F8E7311A06BB6B93F8A5
:10538000E6311B041A43BB6B93F8E5311B021A4349
:10539000BB6B93F8E4311A4347F27223C6F2411310
:1053A0009A4229D1BB6B93F8EB311A06BB6B93F889
:1053B000EA311B041A43BB6B93F8E9311B021A4311
:1053C000BB6B93F8E8311A43BB6BC3F81022BB6B7D
:1053D00093F8EF311A06BB6B93F8EE311B041A43B6
:1053E000BB6B93F8ED311B021A43BB6B93F8EC31A6
:1053F0001A43BB6BC3F80C22BB6B97F8572083F89A
:10540000002240F2B033C2F200031B8801339AB28B
:1054100040F2B033C2F200031A8040F2B033C2F25D
:1054200000031A88BB6BA3F80622B86BFDF79AFE3F
:10543000002318465837BD4680BD00BF80B584B0F4
:1054400000AF78607B68FB60FB68002B15D0FB68C1
:10545000D3F80032002B10D0FB68D3F8003293F859
:105460000032002B09D0FB68D3F80032B3F80622D3
:10547000FB68B3F804329A4201D009230FE0FB68BD
:10548000D3F8003293F801321846FDF7BBFB034610
:1054900003F00103002B01D0032300E00023184692
:1054A0001037BD4680BD00BF80B588B000AFF86042
:1054B000B9601346FB71BB683B6107F110031846E6
:1054C000FFF7E0FBF861FB69002B01DA0B2334E006
:1054D00040F2AC33C2F20003FA6953F82230BB61E8
:1054E000BB69002B06D0B869FDF73CFEBB69002202
:1054F00083F80022FB68002B03D0FB68002283F8AE
:105500000022F96840F2AC33C2F20003FA6943F8B2
:105510002210FB68002B02D0FB79012B01D0002365
:105520000BE007F10C0207F10803104619460022B0
:10553000FFF7B2FC0346FB75FB7D18462037BD46DE
:1055400080BD00BF80B5ADF5167D00AF07F10C033F
:10555000186007F108031960FB1D1A7007F10C03AE
:105560001B68002B01D10923FBE107F10C031B6829
:105570000022C3F80022FB1DFA1D127802F01F0260
:105580001A70FB1D1B7823F00103DBB207F1200228
:1055900002F5007107F10802084611461A46FFF7A6
:1055A0007BFC034687F8573297F85732002B40F0C0
:1055B000D68107F1200307F11402C3F8182207F17E
:1055C000200240F2CC33C2F20003C2F8203207F1CD
:1055D00008031B6807F1200210461946FFF784FBF9
:1055E000034687F8573207F12003D3F81432C7F87F
:1055F000503297F85732002B19D1D7F85032002B80
:1056000003D1062387F8573211E0FB1D1B7823F0E6
:105610000103002B0CBF00230123DBB207F12002A2
:1056200010461946FDF7DCFB034687F85732FB1D91
:105630001B7803F01C03002B00F0CD8097F8573245
:10564000002B1FD097F85732042B0ED1FDF742FCE8
:105650000346002B06D007F120031846FEF720FF73
:10566000034600E0122387F85732FB1DFA1D12781B
:1056700042F008021A7007F12003D3F81432C7F879
:10568000503214E0D7F850320B331B7803F011037B
:10569000002B03D0072387F8573208E0FB1D1B7847
:1056A00003F00403002B02D0082387F8573297F841
:1056B0005732002B40F08E80FB1D1B7803F008034F
:1056C000002B00F08780FDF707FBC7F84C02D7F8E6
:1056D00050320E33D7F84C22D2B21A70D7F850326B
:1056E0000F33D7F84C2292B2120A92B2D2B21A7089
:1056F000D7F850321033D7F84C22120CD2B21A70AD
:10570000D7F850321133D7F84C22120ED2B21A7099
:10571000D7F850320B3300221A70D7F850321C33AE
:1057200000221A70D7F850321D3300221A70D7F8B1
:1057300050321E3300221A70D7F850321F33002225
:105740001A7007F12003D3F800321846D7F8501228
:10575000FEF724FBC7F84802D7F850020021FEF7F5
:1057600049FB07F12003D3F80032012283F8042219
:10577000D7F84832002B2DD007F12003D3F80032A0
:10578000D3F82C32C7F84C3207F12003D3F800329B
:105790001846D7F84812FEF701F8034687F8573243
:1057A00097F85732002B15D107F12003D3F80032B8
:1057B000D7F84822013AC3F80C2207F12003D3F8A6
:1057C00000321846D7F84C12FDF742FD034687F821
:1057D000573221E020E097F85732002B1CD1D7F840
:1057E00050320B331B7803F01003002B03D004233B
:1057F00087F8573210E0FB1D1B7803F00203002BE3
:105800000AD0D7F850320B331B7803F00103002B7A
:1058100002D0072387F8573297F85732002B3CD134
:10582000FB1D1B7803F00803002B05D0FB1DFA1DA0
:10583000127842F020021A7007F12003D3F80032E8
:10584000D3F82C2207F10C031B68C3F81C2207F1C4
:105850000C031B68D7F85022C3F82022FB1D1B78CD
:1058600023F00103002B0CBF00230123DBB207F15F
:10587000200210461946FDF753FB024607F10C03C0
:105880001B68C3F8282207F10C031B68D3F82832E1
:10589000002B02D1022387F8573297F85732002B9A
:1058A0005DD107F10C031B68FA1D127883F80622FC
:1058B00007F10C031B68002283F8072207F120037D
:1058C000D3F800321846D7F85012FEF767FA0246AE
:1058D00007F10C031B68C3F81022D7F850321F33AE
:1058E0001B781A06D7F850321E331B781B041A4354
:1058F000D7F850321D331B781B021A43D7F85032A9
:105900001C331B781A4307F10C031B68C3F80C22E5
:1059100007F10C031B680022C3F8082207F10C03EF
:105920001B680022C3F8182207F10C031B68002231
:10593000C3F8242207F12003D3F8002207F10C0357
:105940001B68C3F8002207F10C031B68D3F8003270
:10595000B3F8062207F10C031B68A3F8042297F89A
:105960005732184607F51677BD4680BD80B58CB016
:1059700000AFF860B9607A603B60BB683B623B682F
:1059800000221A60F868FFF759FD0346FB77FB7F9A
:10599000002B01D0FB7F58E1FB6893F80732002B06
:1059A00003D0FB6893F807324FE1FB6893F80632A7
:1059B00003F00103002B01D1072346E1FB68D3F874
:1059C0000C22FB68D3F80832D31ABB617A68BB6932
:1059D0009A4202D9BB697B6032E131E1FB68D3F8BE
:1059E0000832C3F30803002B40F0FA80FB68D3F8B9
:1059F00008325B0ADAB2FB68D3F8003293F802325D
:105A0000013BDBB21340FB75FB7D002B39D1FB68FA
:105A1000D3F80832002B04D1FB68D3F81032FB62B4
:105A200018E0FB68D3F82432002B08D0FB68D3F8C9
:105A30000832F8681946FDF7A3FFF8620AE0FB6830
:105A4000D3F80022FB68D3F8143210461946FDF74C
:105A5000FDFCF862FB6A012B05D8FB68022283F883
:105A600007220223F1E0FB6AB3F1FF3F05D1FB6897
:105A7000012283F807220123E7E0FB68FA6AC3F8F2
:105A80001422FB68D3F80022FB68D3F814321046C6
:105A90001946FDF7B9FC38613B69002B05D1FB685D
:105AA000022283F807220223CFE0FB7D3A691344E8
:105AB0003B617B685B0A7B627B6A002B49D0FA7D85
:105AC0007B6A1A44FB68D3F8003293F802329A4298
:105AD00008D9FB68D3F8003293F802321A46FB7DEE
