:020000040800F2
:1000000000000220D15601087573010881730108B0
:100010009D730108A5730108AD730108000000007D
:10002000000000000000000000000000B57301089F
:10003000C173010800000000CD730108D9730108E5
:10004000C1560108E9730108F1730108295101083B
:10005000D94F0108F9730108017401080D740108F2
:100060001974010821740108297401083174010808
:100070003974010841740108497401085174010878
:100080005974010861740108B1460108954A0108D4
:10009000F5490108B94A0108C14A01086974010813
:1000A0007174010879740108817401088974010868
:1000B0009174010899740108A1740108E14F0108C5
:1000C000E94F0108F14F0108F94F010839510108C2
:1000D000415101080D54010849540108C95501084E
:1000E000A974010831510108B5740108BD740108F3
:1000F000C5740108CD740108D5740108DD740108C8
:10010000E5740108ED740108F5740108C552010891
:10011000CD5201086D530108FD74010805750108F1
:100120000D750108157501081D7501082575010873
:100130002D750108357501083D750108B14C0108A0
:10014000114C0108D54C0108DD4C0108457501082A
:1001500051750108597501086175010805560108B6
:1001600001500108095001083D5701083D57010899
:1001700069750108717501087975010881750108B3
:100180008975010800000000000000000000000068
:10019000488A01080000022081F0004102E000BF0F
:1001A00083F0004330B54FEA41044FEA430594EA37
:1001B000050F08BF90EA020F1FBF54EA000C55EA72
:1001C000020C7FEA645C7FEA655C00F0E2804FEA43
:1001D0005454D4EB5555B8BF6D420CDD2C4480EA25
:1001E000020281EA030382EA000083EA010180EA55
:1001F000020281EA0303362D88BF30BD11F0004FA3
:100200004FEA01314FF4801C4CEA113102D04042D8
:1002100061EB410113F0004F4FEA03334CEA133313
:1002200002D0524263EB430394EA050F00F0A7802B
:10023000A4F10104D5F1200E0DDB02FA0EFC22FA26
:1002400005F2801841F1000103FA0EF2801843FA1A
:1002500005F359410EE0A5F120050EF1200E012A0B
:1002600003FA0EFC28BF4CF0020C43FA05F3C01849
:1002700051EBE37101F0004507D54FF0000EDCF1C2
:10028000000C7EEB00006EEB0101B1F5801F1BD36B
:10029000B1F5001F0CD349085FEA30004FEA3C0C6F
:1002A00004F101044FEA445212F5800F80F09A8065
:1002B000BCF1004F08BF5FEA500C50F1000041EB69
:1002C000045141EA050130BD5FEA4C0C404141EB6D
:1002D000010111F4801FA4F10104E9D191F0000F94
:1002E00004BF01460020B1FA81F308BF2033A3F117
:1002F0000B03B3F120020CDA0C3208DD02F1140C0E
:10030000C2F10C0201FA0CF021FA02F10CE002F148
:100310001402D8BFC2F1200C01FA02F120FA0CFC41
:10032000DCBF41EA0C019040E41AA2BF01EB04518A
:10033000294330BD6FEA04041F3C1CDA0C340EDC88
:1003400004F11404C4F1200220FA04F001FA02F3CB
:1003500040EA030021FA04F345EA030130BDC4F189
:100360000C04C4F1200220FA02F001FA04F340EA7E
:100370000300294630BD21FA04F0294630BD94F02F
:10038000000F83F4801306BF81F480110134013D16
:100390004EE77FEA645C18BF7FEA655C29D094EA87
:1003A000050F08BF90EA020F05D054EA000C04BF05
:1003B0001946104630BD91EA030F1EBF00210020F0
:1003C00030BD5FEA545C05D14000494128BF41F08F
:1003D000004130BD14F580043CBF01F5801130BDF3
:1003E00001F0004545F0FE4141F470014FF000007E
:1003F00030BD7FEA645C1ABF194610467FEA655C2F
:100400001CBF0B46024650EA013406BF52EA0335D0
:1004100091EA030F41F4002130BD00BF90F0000FBE
:1004200004BF0021704730B54FF4806404F13204FA
:100430004FF000054FF0000150E700BF90F0000FB3
:1004400004BF0021704730B54FF4806404F13204DA
:1004500010F0004548BF40424FF000013EE700BFAA
:1004600042004FEAE2014FEA31014FEA02701FBF3A
:1004700012F07F4393F07F4F81F06051704792F00C
:10048000000F14BF93F07F4F704730B54FF4607486
:1004900001F0004521F0004120E700BF50EA0102D1
:1004A00008BF704730B54FF000050AE050EA01027E
:1004B00008BF704730B511F0004502D5404261EBEE
:1004C00041014FF4806404F132045FEA915C3FF42F
:1004D000DCAE4FF003025FEADC0C18BF03325FEAC8
:1004E000DC0C18BF033202EBDC02C2F1200300FA7D
:1004F00003FC20FA02F001FA03FE40EA0E0021FAA2
:1005000002F11444C1E600BF70B54FF0FF0C4CF48B
:10051000E06C1CEA11541DBF1CEA135594EA0C0F41
:1005200095EA0C0F00F0DEF82C4481EA030621EA7C
:100530004C5123EA4C5350EA013518BF52EA0335B7
:1005400041F4801143F4801338D0A0FB02CE4FF069
:100550000005E1FB02E506F00042E0FB03E54FF099
:100560000006E1FB03569CF0000F18BF4EF0010E91
:10057000A4F1FF04B6F5007F64F5407404D25FEA8D
:100580004E0E6D4146EB060642EAC62141EA555140
:100590004FEAC52040EA5E504FEACE2EB4F1FD0C82
:1005A00088BFBCF5E06F1ED8BEF1004F08BF5FEA00
:1005B000500E50F1000041EB045170BD06F00046B2
:1005C00046EA010140EA020081EA0301B4EB5C045F
:1005D000C2BFD4EB0C0541EA045170BD41F4801157
:1005E0004FF0000E013C00F3AB8014F1360FDEBF7C
:1005F000002001F0004170BDC4F10004203C35DA58
:100600000C341BDC04F11404C4F1200500FA05F3DA
:1006100020FA04F001FA05F240EA020001F000427B
:1006200021F0004110EBD37021FA04F642EB0601F1
:100630005EEA430E08BF20EAD37070BDC4F10C041B
:10064000C4F1200500FA04F320FA05F001FA04F2DF
:1006500040EA020001F0004110EBD37041F10001CB
:100660005EEA430E08BF20EAD37070BDC4F12005D6
:1006700000FA05F24EEA020E20FA04F301FA05F23E
:1006800043EA020321FA04F001F0004121FA04F2E6
:1006900020EA020000EBD3705EEA430E08BF20EAB6
:1006A000D37070BD94F0000F0FD101F000464000F0
:1006B00041EB010111F4801F08BF013CF7D041EA72
:1006C000060195F0000F18BF704703F00046520076
:1006D00043EB030313F4801F08BF013DF7D043EA47
:1006E0000603704794EA0C0F0CEA135518BF95EAFD
:1006F0000C0F0CD050EA410618BF52EA4306D1D184
:1007000081EA030101F000414FF0000070BD50EAA2
:10071000410606BF1046194652EA430619D094EA2C
:100720000C0F02D150EA013613D195EA0C0F05D116
:1007300052EA03361CBF104619460AD181EA03016A
:1007400001F0004141F0FE4141F470014FF0000022
:1007500070BD41F0FE4141F4780170BD70B54FF0BD
:10076000FF0C4CF4E06C1CEA11541DBF1CEA13553D
:1007700094EA0C0F95EA0C0F00F0A7F8A4EB05041F
:1007800081EA030E52EA03354FEA013100F0888016
:100790004FEA03334FF0805545EA131343EA1263DF
:1007A0004FEA022245EA111545EA10654FEA002694
:1007B0000EF000419D4208BF964244F1FD0404F54D
:1007C000407402D25B084FEA3202B61A65EB0305A9
:1007D0005B084FEA32024FF480104FF4002CB6EB66
:1007E000020E75EB030E22BFB61A754640EA0C00E6
:1007F0005B084FEA3202B6EB020E75EB030E22BF26
:10080000B61A754640EA5C005B084FEA3202B6EB66
:10081000020E75EB030E22BFB61A754640EA9C0025
:100820005B084FEA3202B6EB020E75EB030E22BFF5
:10083000B61A754640EADC0055EA060E18D04FEAB3
:10084000051545EA16754FEA06164FEAC30343EA53
:1008500052734FEAC2025FEA1C1CC0D111F4801F20
:100860000BD141EA00014FF000004FF0004CB6E719
:1008700011F4801F04BF01430020B4F1FD0C88BFB8
:10088000BCF5E06F3FF6AFAEB5EB030C04BFB6EBC3
:10089000020C5FEA500C50F1000041EB045170BDB6
:1008A0000EF0004E4EEA113114EB5C04C2BFD4EBE3
:1008B0000C0541EA045170BD41F480114FF0000E67
:1008C000013C90E645EA060E8DE60CEA135594EAE3
:1008D0000C0F08BF95EA0C0F3FF43BAF94EA0C0FE6
:1008E0000AD150EA01347FF434AF95EA0C0F7FF45B
:1008F00025AF104619462CE795EA0C0F06D152EAAF
:1009000003353FF4FDAE1046194622E750EA410692
:1009100018BF52EA43067FF4C5AE50EA41047FF4A3
:100920000DAF52EA43057FF4EBAE12E74FF0FF3C08
:1009300006E000BF4FF0010C02E000BF4FF0010CD9
:100940004DF804CD4FEA410C7FEA6C5C4FEA430C52
:1009500018BF7FEA6C5C1BD001B050EA410C0CBFA1
:1009600052EA430C91EA030F02BF90EA020F002003
:10097000704710F1000F91EA030F58BF994208BF6A
:1009800090422CBFD8176FEAE37040F00100704727
:100990004FEA410C7FEA6C5C02D150EA013C07D17E
:1009A0004FEA430C7FEA6C5CD6D152EA033CD3D0C9
:1009B0005DF8040B704700BF8446104662468C46C3
:1009C0001946634600E000BF01B5FFF7B7FF0028F6
:1009D00048BF10F1000F01BD4DF808EDFFF7F4FF1F
:1009E0000CBF012000205DF808FB00BF4DF808EDAA
:1009F000FFF7EAFF34BF012000205DF808FB00BFCD
:100A00004DF808EDFFF7E0FF94BF012000205DF8EE
:100A100008FB00BF4DF808EDFFF7CEFF94BF0120A3
:100A200000205DF808FB00BF4DF808EDFFF7C4FF9C
:100A300034BF012000205DF808FB00BF4FEA4102EF
:100A400012F5001215D211D56FF47873B3EB625220
:100A500012D94FEAC12343F0004343EA505311F047
:100A6000004F23FA02F018BF404270474FF00000D9
:100A7000704750EA013005D111F0004008BF6FF017
:100A8000004070474FF00000704700BF40F2D02395
:100A9000C2F200031B681844407800F0070070475A
:100AA0008307C9B270B43FD0541E2AB303788B4277
:100AB00023D0431C04E0FCB1057814468D421CD0C1
:100AC00013F0030F184604F1FF3203F10103F2D1D2
:100AD000032C14D8651E4CB303788B420DD0421CF6
:100AE000002302E004788C4207D0AB42104603F1A9
:100AF000010302F10102F5D1002070BC704741EA08
:100B00000126034646EA0646184604330268724048
:100B1000A2F1013525EA020212F0803FDAD1043C4D
:100B20001846032CF0D8D5E71446D1E72046E4E771
:100B3000032A70B412D940EA01039B070FD10C4677
:100B4000034621461846043404330D680668AE4255
:100B500004D1043A1846032A2146F2D8C2B10578D6
:100B60000C78A54204BF02F1FF32002306D00CE04E
:100B700010F8015F11F8014FA54206D1934203F12D
:100B80000103F5D1002070BC7047281B70BC704772
:100B90001046F8E70F2AF0B445D940EA01039B0755
:100BA00045D1A2F110070C4603463F0900EB07169A
:100BB000103625681033103443F8105C54F80C5C80
:100BC00043F80C5C54F8085C43F8085C54F8045C87
:100BD00043F8045CB342ECD17B1C02F00F0CBCF177
:100BE000030F4FEA03131944034422D90E461D464E
:100BF000644656F8047B043C032C45F8047BF8D883
:100C0000ACF1040402F0030224F00304043423448E
:100C1000214432B10A4411F8014B914203F8014BCF
:100C2000F9D1F0BC70470346002AF3D1F9E7034637
:100C3000F0E76246002AEDD1F3E700BF8307F0B486
:100C400048D0541E002A43D0CDB2034602E0002C07
:100C50003ED0144603F8015B13F0030F04F1FF329A
:100C6000F5D1032C2DD9CDB20F2C45EA052545EA47
:100C7000054518D9A4F1100703F110061A463F09DB
:100C800006EB07161560103242F80C5C42F8085C5F
:100C900042F8045CB242F5D104F00F040137032C92
:100CA00003EB07130DD91E462246043A46F8045BAF
:100CB000032AFAD8221F04F0030422F003020432AC
:100CC00013442CB1C9B21C4403F8011BA342FBD14D
:100CD000F0BC704714460346C3E700BFC1F30A5C8B
:100CE0002DE9F843ACF2FF33132B06460F4613DC15
:100CF000002B40DB4FF6FF7CC0F20F0C4CFA03F3E5
:100D000003EA010C5CEA000C1CD107F00041C2E9C7
:100D100000676046BDE8F883332B1EDC4FF0FF33DD
:100D2000ACF2134C23FA0CFC1CEA00031CD020EAA2
:100D30000C060F460B46C2E900673246FFF730FA51
:100D4000BDE8F88321EA030700263B46C2E90067B5
:100D50003246FFF725FABDE8F88307F00041C2E903
:100D600000670020BDE8F88307F00041C2E9006792
:100D70001846BDE8F88307F000494FF00008C2E9C3
:100D80000089BDE8F88300BFC9B2F0B4002947D09C
:100D900084070FD00278002A3FD091423ED0431CF6
:100DA00005E013F8012B002A37D0914236D09A077C
:100DB0001846F6D141EA0127036847EA0747A3F13D
:100DC000013483EA070224EA0303A2F1013424EA8E
:100DD0000202134313F0803F11D1021D104652F856
:100DE000043B83EA0704A3F10136A4F1013526EAA6
:100DF000030325EA0404234313F0803FEED0037875
:100E0000002B3BD0994209D0431C01E0914205D010
:100E1000184613F8012B002AF8D11046F0BC704791
:100E200081070DD00378002BF8D0431C02E0027834
:100E3000002AF3D013F0030F184603F10103F6D193
:100E40000368A3F1013222EA030313F0803F0AD1C1
:100E5000031D184653F8042BA2F1013121EA0202C6
:100E600012F0803FF5D00378002BD7D0431C1846F2
:100E700001330278002AFAD1F0BC70471846CDE75A
:100E800040EA010C1CF0070F27D1BDF1100DCDE990
:100E90000245CDE900676FF000064FF0000700BF84
:100EA000F0E80223F1E80245A242A2F1013C2CEA5B
:100EB000020C0CF0803C08BFBCF1000F40F0E58054
:100EC000AB42A3F1013C2CEA030C0CF0803C08BFC0
:100ED000BCF1000F40F0D680E2E710F0030C21D007
:100EE00020F0030050F8042B5FEACC7C08D00FD22E
:100EF00011F801CB5FFA92F3B3EB0C0C10D17BB17C
:100F000011F801CB5FFAA2F3B3EB0C0C08D13BB1A3
:100F100011F801CB5FFAB2F3B3EB0C0C00D10BB9B3
:100F200060467047BDF1100DCDE90245CDE900677F
:100F30006FF000064FF0000711F0030C33D110F0F2
:100F4000040F0FD050F8042B51F8044BA242A2F129
:100F5000013C2CEA020C0CF0803C08BFBCF1000FF5
:100F600040F0938011F0040F99D051F8045B00BF5A
:100F7000F0E80223AA42A2F1013C2CEA020C0CF098
:100F8000803C08BFBCF1000F79D1F1E80245A342D3
:100F9000A3F1013C2CEA030C0CF0803C08BFBCF12F
:100FA000000F69D1E4E721F00301BCF1020F20D06A
:100FB0003FDA51F8045B00BF50F8043B4FEA1525B7
:100FC000A3F1013C2CEA030C0CF0803CB7EB0C2F96
:100FD00003EA162208BFAA4251D151F8045BBCF1C2
:100FE000000F82EA03034FEA056208BF934240D133
:100FF000E2E751F8045B00BF50F8043B4FEA1545A7
:10100000A3F1013C2CEA030C0CF0803CB7EB0C4F35
:1010100003EA164208BFAA4231D151F8045BBCF181
:10102000000F82EA03034FEA054208BF934220D132
:10103000E2E751F8045B00BF50F8043B4FEA156546
:10104000A3F1013C2CEA030C0CF0803CB7EB0C6FD5
:1010500003EA166208BFAA4211D151F8045BBCF141
:10106000000F82EA03034FEA052208BF934200D132
:10107000E2E719BA12BA0AE019BA22BA07E011BABD
:101080002ABA04E019BA2ABA01E011BA22BA9CFAC3
:101090008CF0DDE90067DDE902451DF1100D38B186
:1010A000B0FA80F0C0F1180021FA00F122FA00F243
:1010B0000120914298BF8041704700BF80EA010241
:1010C000844612F0030F4FD111F0030F32D14DF8C7
:1010D000044D11F0040F51F8043B0BD0A3F1013281
:1010E0009A4312F0803F04BF4CF8043B51F8043B94
:1010F00016D100BF51F8044BA3F101329A4312F00C
:10110000803FA4F101320BD14CF8043BA24312F012
:10111000803F04BF51F8043B4CF8044BEAD023460F
:101120000CF8013B13F0FF0F4FEA3323F8D15DF8C1
:10113000044B704711F0010F06D011F8012B0CF889
:10114000012B002A08BF704711F0020FBFD031F801
:10115000022B12F0FF0F16BF2CF8022B8CF8002088
:1011600012F47F4FB3D1704711F8012B0CF8012B0B
:10117000002AF9D1704700BF20F0030110F00300EE
:10118000C0F1000051F8043B00F1040C4FEACC0C14
:101190006FF000021CBF22FA0CF213434FF0010C57
:1011A0004CEA0C2C4CEA0C4CA3EB0C0222EA030296
:1011B00012EACC1204BF51F8043B0430F4D013F00F
:1011C000FF0F1FBF013013F47F4F013013F47F0F67
:1011D00018BF0130704700BF830770B42AD103687D
:1011E000A3F1013424EA030313F0803F08BF031D79
:1011F00020D11C4653F8045BA5F1013626EA05050B
:1012000015F0803FF5D023782BB1631C1C460133C9
:101210002578002DFAD1013C8D1805E011F8013B2D
:1012200004F8013F23B13AB1A94202F1FF32F5D1EE
:1012300070BC70470446E6E76270F5E7F0B4002A38
:101240004BD040EA010313F003032DD1032A2BD91D
:1012500004680D68AC4227D1043A3ED0A4F10135B0
:1012600025EA040414F0803F3DD10C4605460EE00B
:101270006B68054666680C46A3F10137B34227EA5E
:10128000030711D1043A28D017F0803F28D1032A50
:1012900000F1040001F10401EAD8561E2AB92879A8
:1012A0002279801AF0BC7047561E03780A78934260
:1012B0001BD1E6B1BBB101368B1C0446314405E0BD
:1012C0008B4203F101030BD00028EBD014F8010F7F
:1012D00013F8012C9042F3D0E3E71046F0BC7047BE
:1012E0000020F0BC70471846DCE71846D9E73046C6
:1012F000D8E700BF40EA01039B0770B42BD1032A53
:1013000084BF0B46054626D9194653F8044BA4F171
:10131000013626EA040616F0803F05D1043A45F866
:10132000044B032A1946EFD89AB10C78013A6B1C8A
:101330002C703CB16AB111F8014F013A03F8014B2E
:10134000002CF7D12AB11A44002103F8011B934263
:10135000FBD170BC70470546E6E700BF4FF0010CBB
:101360002DE9F003644600254FF0FF366319871915
:101370008B420DD23F5D10F80380B8452FD21D4639
:101380000124C6EB030C63198B4200EB0607F1D373
:101390004FF0010900254C464FF0FF37C2F800C05E
:1013A000631900EB070C99420ED91CF804C010F821
:1013B0000380E0451AD91D460124C7EB03096319D0
:1013C000994200EB070CF0D801370136B74226BF2F
:1013D000C2F8009038463046BDE8F00370470CD0A4
:1013E0004FF0010C2E4664466544BFE70CD04FF029
:1013F00001092F464C464D44D2E7644504F10104EF
:10140000B4D11D460124B1E74C4504F10104C7D114
:101410001D460124C4E700BF2DE9F04FADF2244D75
:10142000164680460D461046194607AA1C46FFF789
:1014300095FF07AB0DF21C42039043F8044F934213
:10144000FBD1671E002308A834B1F25CF91A0133FE
:10145000A34240F82210F8D107993046039A31444C
:10146000FFF766FB002840F08180DDF80CC02A46BB
:101470008246671E0CF1FF3CCDF808C0B444CDF89D
:1014800010C0DDF80CC005460196CCF1010CCDF87A
:1014900014C008E025B1079A934238BFC2EB040399
:1014A0009A44002532460AEB040608EB02000021AC
:1014B000B21AFFF7F5FA002853D1002E51D008EBED
:1014C000060308A913F8013C51F82330002BE1D1A1
:1014D000039A954228BF2A46BA4212D2019908EBD4
:1014E0000A03985C11F802C01144844506D032E02A
:1014F00011F8010F13F802C084452CD10132BA4211
:10150000F6D3039B02989D4228BF18461CD2DDF8F3
:1015100010C008EB0A039CF80010DDF808C013F8AF
:101520000C20914240F08680DDF804B0049AAB4470
:1015300006E012F8019D13F801C0E14504D1084608
:101540005A4500F1FF31F4D10135854274D8079D29
:10155000AA44651BA6E7DDF814C00025E2449244C6
:10156000A0E700200DF2244DBDE8F08FDDF80CC09F
:101570002A46DDF80CA04FF0000BCCEB04030DF174
:101580002009634538BF6346671E0133254607932C
:101590000CF1FF33B444CDF808C0DDF80CC0019362
:1015A000CCF1010CCDF810C00BEB050408EB0200E8
:1015B0000021A21AFFF774FA0028D2D1002CD0D053
:1015C00008EB040313F8013C59F8233053BBBA4528
:1015D00008EB0B0013D2029B1A7810F80A309A42DB
:1015E00018BF534621D1029A534605E012F8011F55
:1015F00010F803C08C4518D10133BB42F6D3019BD0
:101600005A1CAFD0DDF804C016F80C1010F80C20EE
:10161000914206D113F1FF33A4D3F15CC25C914235
:10162000F8D0079B9B442246BEE7DDF810C0E34498
:101630009B44F8E7039887E708EB0A0092E700BFAE
:101640002DE9F04F8046037887B00E46002B00F05E
:1016500001810A789AB184460131012402E011F82F
:10166000012B5AB1934214BF002404F001041CF86A
:10167000013F0D46002BF2D12B7813BB1CB1404625
:1016800007B0BDE8F08F08F101003178FFF77CFB6F
:10169000AD1B012D18BF0028074608BF0046EFD03C
:1016A000A844474594BFC7EB080401241F2D0CD95B
:1016B0003846214632462B46FFF7AEFE07B0BDE85E
:1016C000F08F002007B0BDE8F08F294605AA30460C
:1016D000FFF744FE05993144009002463046FFF77B
:1016E00027FA002857D1009B834680462246013BBB
:1016F000019333440293009BC3F10103039308EB6E
:101700000504B8180021A21AFFF7CAF90028D8D199
:10171000002CD6D0009B9B4528BF5B469D4214D928
:10172000F918F05CF21811F80810884240F08C802B
:1017300007EB080C06E012F8011F1CF803008842B2
:1017400040F0828001339D42F5D8009B01995B45B2
:1017500040F28380029B07EB08091A7819F80130E0
:101760009A427AD1029B06EB0B0A06E013F801CDF0
:1017700019F80200844504D11146534501F1FF32A6
:10178000F4D10BF1010B8B4569D8059B9844C3EB51
:10179000050B2246B3E700984FF0000B22462B1AA8
:1017A0008146834238BF0346B14401330593009B11
:1017B00038440190C3F101030293009B03F1FF3809
:1017C0009A460BEB0504B8180021A21AFFF768F936
:1017D00000287FF476AF002C3FF473AF554598BFD7
:1017E00007EB0B0014D9019899F8002010F80B3082
:1017F0009A4224D14A46534607EB0B0005E012F803
:10180000011F10F803C08C451AD101339D42F6D850
:10181000B8F1FF3F43463FF433AF16F8081010F815
:101820000820914207D113F1FF33FFF429AFF15C97
:10183000C25C9142F7D0059B9B442246C1E75346C8
:10184000029A93449B44F8E703994FF0000B8844B5
:1018500098449EE70D4601240EE7009991E707EBB7
:1018600008000DE72DE9F04F40F2D02485B0C2F218
:1018700000048C46994603900846D4F8008000E0A6
:101880002046044614F8015B08EB0503597801F083
:10189000080101F0FF030029F2D12D2D76D02B2D68
:1018A00004BF841C457839F0100112D1D9F101012F
:1018B00038BF0021302D04D059B14FF00A09CB4672
:1018C00008E0207800F0DF00582863D009B14FF01D
:1018D0000809CB46002B59460CBF6FF000464FF06D
:1018E0000046009230460293CDF804C000F096F90D
:1018F000002730468A46594600F062F83946029B76
:101900009DE804100CE05545D4BF00260126814215
:1019100018BF0026EEB90BFB0151012714F8015B3B
:1019200008EB0506767816F0040F18BF303D07D196
:1019300016F0030610D0012E14BF57263726AD1B14
:10194000A94509DD814294BF0026012656EAD777D2
:10195000D9D04FF0FF37E1E7781C08D0A3B908468B
:1019600012B17FB96446146005B0BDE8F08F0399E9
:10197000002B0CBF6FF000404FF0004022230B60A3
:10198000002AF1D0013CEEE74942E8E7841C4578A3
:10199000012388E74FF010096578CB46023499E7B8
:1019A00030B440F2D424C2F200040D46134601467E
:1019B0002A46206830BCFFF755BF00BF000000007A
:1019C0004A1E08BF7047C0F02481884240F2168149
:1019D000114200F01781B0FA80F3B1FA81F2A2EB64
:1019E0000303C3F11F0304A202EB03134FF0000231
:1019F0009F4600BFAFF30080B0EBC17F00BF42EB5A
:101A0000020228BFA0EBC170B0EB817F00BF42EBA8
:101A1000020228BFA0EB8170B0EB417F00BF42EB18
:101A2000020228BFA0EB4170B0EB017F00BF42EB88
:101A3000020228BFA0EB0170B0EBC16F00BF42EB08
:101A4000020228BFA0EBC160B0EB816F00BF42EB88
:101A5000020228BFA0EB8160B0EB416F00BF42EBF8
:101A6000020228BFA0EB4160B0EB016F00BF42EB68
:101A7000020228BFA0EB0160B0EBC15F00BF42EBE8
:101A8000020228BFA0EBC150B0EB815F00BF42EB68
:101A9000020228BFA0EB8150B0EB415F00BF42EBD8
:101AA000020228BFA0EB4150B0EB015F00BF42EB48
:101AB000020228BFA0EB0150B0EBC14F00BF42EBC8
:101AC000020228BFA0EBC140B0EB814F00BF42EB48
:101AD000020228BFA0EB8140B0EB414F00BF42EBB8
:101AE000020228BFA0EB4140B0EB014F00BF42EB28
:101AF000020228BFA0EB0140B0EBC13F00BF42EBA8
:101B0000020228BFA0EBC130B0EB813F00BF42EB27
:101B1000020228BFA0EB8130B0EB413F00BF42EB97
:101B2000020228BFA0EB4130B0EB013F00BF42EB07
:101B3000020228BFA0EB0130B0EBC12F00BF42EB87
:101B4000020228BFA0EBC120B0EB812F00BF42EB07
:101B5000020228BFA0EB8120B0EB412F00BF42EB77
:101B6000020228BFA0EB4120B0EB012F00BF42EBE7
:101B7000020228BFA0EB0120B0EBC11F00BF42EB67
:101B8000020228BFA0EBC110B0EB811F00BF42EBE7
:101B9000020228BFA0EB8110B0EB411F00BF42EB57
:101BA000020228BFA0EB4110B0EB011F00BF42EBC7
:101BB000020228BFA0EB0110B0EBC10F00BF42EB47
:101BC000020228BFA0EBC100B0EB810F00BF42EBC7
:101BD000020228BFA0EB8100B0EB410F00BF42EB37
:101BE000020228BFA0EB4100B0EB010F00BF42EBA7
:101BF000020228BFA0EB0100104670470CBF012075
:101C000000207047B1FA81F2C2F11F0220FA02F0FF
:101C1000704708B14FF0FF3000F00EB80029F8D03F
:101C20002DE90340FFF7CCFEBDE8064002FB00F3C0
:101C3000A1EB0301704700BF704700BF80B485B0BF
:101C400000AFF860B9607A603B60FB68002B00D1A0
:101C500015E0BB68002B00D111E0FB6800221A6080
:101C6000FB6800225A60FB687A689A60FB683A68F1
:101C7000DA60FB68BA681A61FB6800221A751437CB
:101C8000BD465DF8047B70470FB490B482B000AFDE
:101C900007F114043C603B691B7D032B01D1032336
:101CA00033E000237B600EE03B6919693A691368F1
:101CB000581C10600B4439687A680A4412781A700C
:101CC0007B6801337B603B69DA687B689A42EBD8BA
:101CD0003B691A683B699B683969C96801FB03F372
:101CE0009A4202D33B6900221A603B691A683B6939
:101CF0005B689A4204D13B6903221A75012304E010
:101D00003B6902221A753B691B7D18460837BD46A0
:101D100090BC04B0704700BF90B484B000AF78604E
:101D200039607B681B7D002B01D1002335E0002347
:101D3000FB6010E03A68FB681A447B6819697B68AD
:101D40005B685C1C786844600B441B78DBB21370E2
:101D5000FB680133FB607B68DA68FB689A42E9D86C
:101D60007B685A687B689B687968C96801FB03F3E4
:101D70009A4202D37B6800225A607B681A687B68AB
:101D80005B689A4204D17B6800221A75012304E043
:101D90007B6802221A757B681B7D18461037BD468A
:101DA00090BC704780B400AF72B6BD465DF8047B4E
:101DB000704700BF80B584B000AF78607B681A6858
:101DC0000023C2F6FD731340B3F1005F13D17B68AB
:101DD00004331B68FB60FB68BB60FFF7E3FF12F096
:101DE000C9F97B681B68184612F076F9BB680020B9
:101DF0009847002300E0012318461037BD4680BDF8
:101E000080B400AF62B6BD465DF8047B704700BF8A
:101E100080B400AF72B6BD465DF8047B704700BF6A
:101E200080B584B000AF7860FFF7F2FF40F2CC33AA
:101E3000C2F200031B68002B02D1FFF7E1FF39E07B
:101E400040F2CC33C2F200031A687B689A420DD18B
:101E500040F2CC33C2F200031B681A6940F2CC3363
:101E6000C2F200031A60FFF7CBFF23E040F2CC334D
:101E7000C2F200031B68BB6040F2CC33C2F2000325
:101E80001B68FB6004E0BB68FB60BB681B69BB6050
:101E9000BB681B69002B03D0BA687B689A42F2D1F9
:101EA000BA687B689A4203D1BB681A69FB681A61F9
:101EB000FFF7A6FF1037BD4680BD00BF80B584B0D8
:101EC00000AF7860FFF7A4FF7B6800221A6140F240
:101ED000CC33C2F200031B68002B08D140F2CC3394
:101EE000C2F200037A681A60FFF78AFF47E07B6856
:101EF0009A6840F2CC33C2F200031B689B689A4296
:101F00000FD240F2CC33C2F200031A687B681A6128
:101F100040F2CC33C2F200037A681A60FFF770FF18
:101F20002DE040F2CC33C2F200031B68FB6040F2AC
:101F3000CC33C2F200031B68BB6004E0BB68FB60EB
:101F4000BB681B69BB60BB681B69002B05D0BB6805
:101F50009A687B689B689A42F0D9BB689A687B68EC
:101F60009B689A4206D97B68BA681A61FB687A68EE
:101F70001A6102E0BB687A681A61FFF741FF103707
:101F8000BD4680BD80B500AF40F2C833C2F2000349
:101F90001B685A1C40F2C833C2F200031A600EE0FC
:101FA00040F2CC33C2F200031B6801221A7340F2E4
:101FB000CC33C2F200031B681846FFF731FF40F232
:101FC000CC33C2F200031B68002B0CD040F2CC33A0
:101FD000C2F200031B689A6840F2C833C2F20003E1
:101FE0001B689A42DCD980BD80B485B000AF7860B0
:101FF00040F2C833C2F200031A687B681344FB60E6
:1020000000BF40F2C833C2F200031A68FB689A426C
:10201000F7D31437BD465DF8047B704780B400AF3A
:1020200040F2C833C2F200031B681846BD465DF893
:10203000047B704780B582B000AF78603960786803
:10204000FFF7EEFE40F2C833C2F200031A687B6865
:102050001A6040F2C833C2F200031A687B685A6003
:1020600040F2C833C2F200031A683B681A447B6826
:102070009A607868FFF722FF7B6803221A7308379B
:10208000BD4680BD80B483B000AF78607B681B7BA9
:10209000032B01D1012300E0002318460C37BD4675
:1020A0005DF8047B704700BF80B582B000AF7860F8
:1020B00039607B68002B0AD07B681B683A68D2B213
:1020C0001A707B681B685A1C7B681A6004E03B68C6
:1020D000DBB2184612F02CFA0837BD4680BD00BFAF
:1020E0002DE9F04184B000AFF860B9607A603B60E0
:1020F000002420267B68002B19DD0025D7F80880F6
:1021000002E0013508F1010898F80030002BF8D101
:102110007B689D4202DB00237B6002E07B685B1BE7
:102120007B603B6803F00203002B00D030263B6845
:1021300003F00103002B0BD107E0F8683146FFF7ED
:10214000B3FF01347B68013B7B607B68002BF4DCD0
:102150000AE0BB681B785BB2F8681946FFF7A4FF7A
:102160000134BB680133BB60BB681B78002BF0D126
:1021700007E0F8683146FFF797FF01347B68013BC1
:102180007B607B68002BF4DC234618461037BD4685
:10219000BDE8F0812DE9F0438DB000AFF860B96083
:1021A0007A603B604FF000094FF00008BD680023E3
:1021B00087F82F30BB68002B33D13B68002B0CD045
:1021C00097F82F301A46013287F82F205BB207F1BB
:1021D000300213442D2203F8202C97F82F301A4692
:1021E000013287F82F205BB207F13002134430220E
:1021F00003F8202C97F82F301A46013287F82F2049
:102200005BB207F130021344002203F8202C07F1DF
:102210001003F86819463A6D7B6DFFF761FF0346BE
:102220004AE03B68002B0AD07B680A2B07D1BB68C9
:10223000002B04DC4FF00109BB685B421D4607F12F
:1022400010041D340023237014E07B68B5FBF3F207
:1022500003FB02F3EB1A1E46092E02DDBB6D3A3B6F
:102260001E44013CF3B23033DBB2DBB223707B6837
:10227000B5FBF3F5002DE8D1B9F1000F14D03B6D9B
:10228000002B0ED07B6D03F00203002B09D0F86801
:102290002D21FFF709FF08F101083B6D013B3B656C
:1022A00002E0013C2D232370F86821463A6D7B6DD6
:1022B000FFF716FF0346434418463437BD46BDE8D2
:1022C000F08300BF90B58FB004AFF860C7E900237A
:1022D0000023BB6107F11003D7E900011A46FEF79E
:1022E000FDFCC7E908013B6A3B627B6A23F00043BF
:1022F0007B620023FB6110E0D7E908014FF0000288
:102300004FF00003C4F22403FEF7FEF802460B462A
:10231000C7E90823FB690133FB61FA69FB6B9A4249
:10232000EADBD7E9042310461946FEF787FB04468B
:10233000D7E900014FF000024FF00003FEF756FB13
:102340000346002B1AD0D7E90801FEF777FB0346B6
:102350001846FEF773F8D7E90423FDF723FF02467A
:102360000B46104619464FF000024FF00003FEF7EF
:1023700033FB0346002B01D1012300E00023BA6B9D
:1023800000923A6C019261220292F86821460A2278
:10239000FFF700FF0346BA691344BB61F8682E21BA
:1023A000FFF782FEBB690133BB61D7E90801FEF785
:1023B00045FB0346002B10D1FB6B009302230193D6
:1023C00061230293F86800210A220023FFF7E2FE4E
:1023D0000346BA691344BB6114E0D7E90801FEF76C
:1023E0002DFB0346FA6B00920222019261220292B7
:1023F000F86819460A220023FFF7CCFE0346BA69A3
:102400001344BB61BB6918462C37BD4690BD00BF65
:102410002DE9F0418AB004AFF860B9607A60002419
:1024200019E1BB681B785BB2252B40F00981BB68C2
:102430000133BB60002635464FF00008BB681B78AF
:10244000002B00D10CE1BB681B785BB2252B00D1BF
:10245000F6E0BB681B785BB22D2B04D1BB6801335F
:10246000BB60012605E004E0BB680133BB6046F0B9
:102470000206BB681B785BB2302BF5D00CE02B4614
:102480009B002B445B001D46BB681B785BB2303B56
:102490001D44BB680133BB60BB681B785BB22F2B4C
:1024A00004DDBB681B785BB2392BE8DDBB681B78A9
:1024B0005BB22E2B1BD1BB680133BB600CE04346E3
:1024C0009B0043445B009846BB681B785BB2303B83
:1024D0009844BB680133BB60BB681B785BB22F2B91
:1024E00007DDBB681B785BB2392BE8DD01E04FF0FC
:1024F0000608BB681B785BB2732B16D17B681A1D6C
:102500007A601B689846B8F1000F01D0434603E09B
:1025100047F29053C0F60103F86819462A4633463D
:10252000FFF7DEFD03461C4492E0BB681B785BB2FC
:10253000642B13D17B681A1D7A601B687B617B69F1
:10254000DB0FDBB20095019661220292F86879698F
:102550000A22FFF71FFE03461C4479E0BB681B7884
:102560005BB2782B10D17B681A1D7A601B680095CE
:10257000019661220292F868194610220023FFF7A3
:1025800009FE03461C4463E0BB681B785BB2582B12
:1025900010D17B681A1D7A601B6800950196412254
:1025A0000292F868194610220023FFF7F3FD034654
:1025B0001C444DE0BB681B785BB2752B10D17B6867
:1025C0001A1D7A601B680095019661220292F868D4
:1025D00019460A220023FFF7DDFD03461C4437E0BD
:1025E000BB681B785BB2632B12D17B681A1D7A60C3
:1025F0001B68DBB23B7400237B7407F11003F8689F
:1026000019462A463346FFF76BFD03461C441FE07C
:10261000BB681B785BB2662B1AD17B68073323F04B
:10262000070303F108027A60D3E900230095CDF88F
:1026300004800296F868FFF745FE03461C4407E055
:10264000BB681B785BB2F8681946FFF72DFD0134B3
:10265000BB680133BB60BB681B78002B7FF4E1AE25
:10266000FB68002B03D0FB681B6800221A7023460E
:1026700018461837BD46BDE8F08100BF0FB480B5DD
:1026800082B000AF07F114037B60002039697A68DB
:10269000FFF7BEFE034618460837BD46BDE880403A
:1026A00004B070470EB480B585B000AF786007F114
:1026B0002003FB603B1D1846F969FA68FFF7A8FE86
:1026C000034618461437BD46BDE8804003B0704746
:1026D00080B582B000AF786040F2D032C2F2000222
:1026E00079680B469B000B449B0013441B68002B2E
:1026F00019D040F2D032C2F2000279680B469B003A
:102700000B449B0013441B68184603F05FF940F22A
:10271000D032C2F2000279680B469B000B449B004A
:10272000134400221A6040F2D032C2F200027968EB
:102730000B469B000B449B001344103300229A70FD
:102740000837BD4680BD00BF80B582B000AF002312
:10275000FB7176E0F97940F2D032C2F200020B460A
:102760009B000B449B00134410339B78BB71BB79D7
:10277000002B63D0FA7940F2D031C2F20001134647
:102780009B0013449B000B441033DB780133D8B219
:1027900040F2D031C2F2000113469B0013449B006B
:1027A0000B4410330246DA70F97940F2D032C2F2AB
:1027B00000020B469B000B449B0013441033DB7854
:1027C000EF2B1BD8F97940F2D032C2F200020B464F
:1027D0009B000B449B00134410339B78012B12D1B8
:1027E000F97940F2D032C2F200020B469B000B4452
:1027F0009B0013441033DB78012B04D9FB79184676
:10280000FFF766FF1AE0F97940F2D032C2F2000217
:102810000B469B000B449B00134410339B78032B07
:102820000CD1F97940F2D032C2F200020B469B0083
:102830000B449B001344103302229A70FB7901333E
:10284000FB71FB79092B85D90837BD4680BD00BFD8
:1028500080B586B000AF78600B46FB700A23FB752D
:102860000A23BB750A237B7500233B750023FB7489
:102870000023BB740A237B7400233B7400233B7545
:10288000A1E0397D40F2D032C2F200020B469B003B
:102890000B449B00134410339B78FB7397F915305E
:1028A0000A2B05D1FB7B002B02D13B7D7B7587E09A
:1028B000FB7B002B00F084807B68002B11D07B68B1
:1028C0001868397D40F2D032C2F200020B469B00FC
:1028D0000B449B00134404331B68984201D13B7D99
:1028E000D0E0FB7B012B4AD1397D40F2D032C2F2DD
:1028F00000020B469B000B449B0013441B68002BFB
:102900001ED0397D40F2D032C2F200020B469B004D
:102910000B449B0013441033DB783A7C9A424FD827
:102920003B7D7B74397D40F2D032C2F200020B460F
:102930009B000B449B0013441033DB783B743FE057
:10294000397D40F2D032C2F200020B469B000B44AC
:102950009B0013441033DB78FA7C9A4230D83B7DDD
:10296000FB75397D40F2D032C2F200020B469B006B
:102970000B449B0013441033DB78FB7420E0FB7B9B
:10298000012B1DD9397D40F2D032C2F200020B4634
:102990009B000B449B0013441033DB78BA7C9A42B3
:1029A0000ED83B7DBB75397D40F2D032C2F20002B9
:1029B0000B469B000B449B0013441033DB78BB7425
:1029C0003B7D01333B753B7D092B7FF65AAFFB788E
:1029D00003F00203002B08D197F915300A2B06D11A
:1029E000FB7803F00103002B01D1FF234AE097F9A4
:1029F0001530092B02DC7B7D3B751FE097F9163003
:102A0000092B07DCBB7D3B753A7D13469B001344C5
:102A10009B000FE097F91730092B02DCFB7D3B751B
:102A200008E097F91130092B02DC7B7C3B7501E053
:102A3000FF2327E03B7D1846FFF74AFE3A7D134609
:102A40009B0013449B007B68002B0DD0397D7B6875
:102A5000186840F2D032C2F200020B469B000B44D1
:102A60009B00134404331860397D40F2D032C2F227
:102A700000020B469B000B449B00134410330022C2
:102A8000DA703B7D5BB218461837BD4680BD00BF8B
:102A900080B586B000AFF860B9607A603B60BB6813
:102AA0005B687B617B69184639680622FEF772F81D
:102AB0007B690633184679680622FEF76BF87B6956
:102AC000002242F008021A7300225A73FB689B69C5
:102AD000F868B9689847034618461837BD4680BD60
:102AE00080B586B000AFF860B9607A60FB70BB68F3
:102AF000002B12D0BB681B68002B0ED0BB681B6874
:102B00001846F96801F03EF90346002B05D1BB6871
:102B10001B6803F0F003E02B01D1F2237DE0FB788A
:102B2000B8681946FFF794FE0346FB7597F917300E
:102B3000002B01DAFB7D70E097F9171040F2D032DC
:102B4000C2F200020B469B000B449B00134410335F
:102B500002229A7097F9171040F2D032C2F20002A6
:102B60000B469B000B449B0013440833FA681A6021
:102B700097F9172013469B0013449B0003F10802AA
:102B800040F2D033C2F20003134404337A68116870
:102B9000196092889A8097F9171040F2D032C2F2E9
:102BA00000020B469B000B449B0013441033002291
:102BB000DA7097F9171040F2D032C2F200020B46D9
:102BC0009B000B449B0013441B68002B24D097F9F7
:102BD000171040F2D032C2F200020B469B000B44A9
:102BE0009B0013441B683B6197F9171040F2D032E9
:102BF000C2F200020B469B000B449B0013440022D0
:102C00001A60FB682B33F86839691A467B68FFF74E
:102C10003FFF386902F0DAFE00235BB2184618372E
:102C2000BD4680BD80B58AB000AFF860B9607A60FB
:102C3000FB68002B00D1B8E07B685B89292B03D8A7
:102C4000786802F0C3FEB0E07B685B683B623B6A79
:102C50000E33FB61FB691B889BB2B3F5807F0CD1FF
:102C6000FB691B79062B08D1FB695B79042B04D126
:102C7000FB695B889BB2082B03D0786802F0A6FE44
:102C800093E0FB690E3307F118021046194604223F
:102C9000FDF780FFFB69183307F11402104619464F
:102CA0000422FDF777FFFB680433002B03D0FB6899
:102CB0005B68002B03D1002387F8273009E07A698D
:102CC000FB685B689A4214BF00230123DBB287F8DC
:102CD0002730FB6903F1080297F82730002B01D059
:102CE000012300E0022307F11801F868FFF7F8FE5E
:102CF000FB69DB889BB2B3F5807F03D0B3F5007F1F
:102D000049D04FE097F82730002B40D0022001F047
:102D1000EFFC03461A46FB69DA80FB6903F11802EF
:102D2000FB690E33104619460422FDF733FFFB6999
:102D300003F10E02FB680433104619460422FDF726
:102D400029FFFB6903F11202FB690833104619469B
:102D50000622FDF71FFF3A6AFB6908331046194641
:102D60000622FDF717FFFB6908331846B9680622EB
:102D7000FDF710FF3B6A06331846B9680622FDF7D7
:102D800009FFFB689B69F8687968984702E0FB686F
:102D90000433002B06E007F11803F868194601F028
:102DA000F1FC00BF786802F011FE2837BD4680BDF7
:102DB00090B585B000AFF860B9601346FB71FA7941
:102DC00013469B0013449B00F97940F2D032C2F2C3
:102DD00000020B469B000B449B00134410339B786E
:102DE000022B2CD1F97940F2D032C2F200020B460C
:102DF0009B000B449B0013441033DB78E32B1ED95C
:102E0000FA7913469B0013449B0040F2D032C2F281
:102E1000000213440433F868194600F0B1FA03467F
:102E2000002B0CD1F97940F2D032C2F200020B46ED
:102E30009B000B449B001344103303229A70FB68E1
:102E400003F12B04FA7913469B0013449B0003F112
:102E5000080240F2D033C2F2000313440433F8688E
:102E6000B9682246FFF714FE034618461437BD46DC
:102E700090BD00BF80B588B000AFF860B9607A60DF
:102E80007B68BB61B8680E2102F030FD0346002B61
:102E900001D0FE23C6E07B681B681846F96800F085
:102EA00071FF0346002B05D048F27813C0F60103EA
:102EB000FB61AEE07B681B6803F0F003E02B16D1EA
:102EC00001233B7400237B745E23BB747B68013356
:102ED0001B7803F07F03DBB2FB747B689B783B7548
:102EE0007B68DB787B7507F11003FB6191E07B6801
:102EF0001A68FB685B685A40FB689B681340002BAC
:102F000014D07B681B689AB24FF6A9639A420DD021
:102F1000FB680C33002B07D0FB68DB68002B03D069
:102F2000FB680C33BB6101E0FC237BE040F298437B
:102F3000C2F200031B78194640F2D032C2F20002FE
:102F40000B469B000B449B00134410339B78012BD2
:102F500020D9BB69186840F29843C2F200031B787D
:102F6000194640F2D032C2F200020B469B000B44DD
:102F70009B00134404331B6898420BD140F29843E2
:102F8000C2F200031B78F868B9681A46FFF710FF11
:102F9000034647E00023FB7530E097F9171040F235
:102FA000D032C2F200020B469B000B449B0013443C
:102FB00010339B78012B1ED9BB69186897F917103D
:102FC00040F2D032C2F200020B469B000B449B0041
:102FD000134404331B6898420DD1FA7D40F29843A4
:102FE000C2F200031A70FB7DF868B9681A46FFF751
:102FF000DFFE034616E0FB7D0133FB7597F91730C2
:10300000092BCADDF868B969BA6800F011F80346FF
:1030100008E0FB682B33F868B9681A46FB69FFF7CC
:1030200037FD03465BB218462037BD4680BD00BF62
:1030300080B58AB000AFF860B9607A60FB682B3366
:10304000BB61FF2387F82730BB681B681846F96807
:1030500000F098FE0346002B0CD1BB681B6803F000
:10306000F003E02B06D0BB68002B03D0BB681B68C5
:10307000002B01D1F22304E1B8680121FFF7E8FB3E
:103080000346FB7597F91730002B01DAFB7DF8E05A
:1030900097F9171040F2D032C2F200020B469B00A3
:1030A0000B449B00134410339B78002B0DD197F9F0
:1030B000171040F2D032C2F200020B469B000B44C4
:1030C0009B001344103301229A7097F9171040F2B5
:1030D000D032C2F200020B469B000B449B0013440B
:1030E00010339B78012B05D097F9172013469B00CE
:1030F00013449B0097F9171040F2D032C2F200023D
:103100000B469B000B449B00134410339B78012B10
:1031100002D07B68002B0CD1F868B96800F030F958
:10312000034687F827307B68002B02D197F82730B9
:10313000A7E097F9171040F2D032C2F200020B4616
:103140009B000B449B00134410339B78012B1CD92C
:10315000FA7D40F29843C2F200031A7097F91720E3
:1031600013469B0013449B0003F1080240F2D03346
:10317000C2F2000313440433F8687968BA69FFF7B0
:1031800087FC034687F8273079E097F9171040F25B
:10319000D032C2F200020B469B000B449B0013444A
:1031A00010339B78012B6AD10023FB617B683B6263
:1031B0000EE03B6A5A893B6A1B899A423B6A1B7B39
:1031C000012B02D00123FB6105E03B6A1B683B62D7
:1031D0003B6A002BEDD1FB69002B17D03B6A1B89A2
:1031E00003201946002202F0C7F938623B6A002B1F
:1031F00011D0386A796802F0ADFC0346002B0AD082
:10320000386A02F0E3FB00233B6204E07B683B6228
:10321000386A02F04FFC3B6A002B2DD097F917104B
:1032200040F2D032C2F200020B469B000B449B00DE
:1032300013441B68002B0ED097F9171040F2D032C0
:10324000C2F200020B469B000B449B0013441B6818
:10325000184602F0BBFB97F9171040F2D032C2F2C9
:1032600000020B469B000B449B0013443A6A1A6011
:10327000002387F8273002E0FF2387F8273097F8EC
:1032800027305BB218462837BD4680BD80B588B070
:1032900000AFF860B9607A603B600023FB770320E1
:1032A0002A21002202F068F9B861BB69002B01D124
:1032B000FF2360E0BB695B687B617B690E333B6128
:1032C000BB8E184601F014FA03461A463B69DA80B1
:1032D0003B690833184639680622FDF75BFC3B69F9
:1032E00012331846F96A0622FDF754FC7B6918462A
:1032F00079680622FDF74EFC7B6906331846B968EB
:103300000622FDF747FC3B690E331846B96A0422D2
:10331000FDF740FC3B6918331846396B0422FDF772
:1033200039FC3B6900221A70002242F001025A70F7
:103330003B69002242F008029A700022DA703B6971
:1033400006221A713B6904225A717B69002242F0FD
:1033500008021A73002242F006025A73FB689B6946
:10336000F868B96998470346FB77B86902F02EFB05
:103370000023BB61FB7F5BB218462037BD4680BD92
:1033800090B587B004AF786039607B6803F12B0299
:103390007B6803F12B047B680433009348F28013AD
:1033A000C0F6010301933B680293012303937868FD
:1033B000114648F27812C0F601022346FFF766FF75
:1033C000034618460C37BD4690BD00BF80B586B099
:1033D00000AF786039600E23FB827B685B890E2B1F
:1033E00000D868E07B685B683B613B691A7B5B7B6C
:1033F0001B021343FB813B691B7803F00103002B85
:1034000026D03B691B78012B0FD13B695B78002BE1
:103410001ED13B699B785E2B1AD17B685B7B43F0A6
:103420001003DAB27B685A7312E03B69184648F21F
:103430007811C0F601010622FDF77AFB0346002B46
:1034400006D17B685B7B43F00803DAB27B685A7372
:10345000FB89082B03D0B3F5C16F1AD02BE03B6872
:1034600093F8313003F02003002B00D123E0FB8AD6
:103470005B429BB29BB21BB27868194602F036FAE7
:103480000346002B00D016E07868396800F07EFA19
:103490000FE03B6893F8313003F02003002B00D19C
:1034A00009E03B682B33386819467A68FFF7BAFBA6
:1034B00000BF002303E0786802F088FA00235BB2C3
:1034C00018461837BD4680BD80B58CB004AF786013
:1034D00039607B685B68FB61FB691B7803F00F0355
:1034E0009BB29B009BB2FB82FB8A5B429BB29BB26E
:1034F0001BB27868194602F0F9F90346002B40F038
:10350000C6807B681B89032B40F2C1807B685B68A7
:103510001B787B757B7D002B00F0B480082B40F07E
:10352000B2800123BB6143F2B863C2F200031B689F
:1035300003F0F003E02B01D10023BB6143F2B86339
:10354000C2F200031B681846396800F01BFC0346F2
:10355000002B01D00023BB61BB69002B03D178682D
:1035600002F034FA9BE07B681B89072B00D88EE0C1
:10357000786800F07BF90346002B03D0786802F0EE
:1035800025FA8CE07868222102F0B0F90346002B7E
:1035900033D0B7F916307868194602F0A7F9034618
:1035A000002B00D077E07B681B890220194600229F
:1035B00001F0E2FF38613B69002B00D16BE0386914
:1035C000796802F0C7FA0346002B00D063E03B693C
:1035D0005B68FB61FB8A5B429BB29BB21BB23869A2
:1035E000194602F083F90346002B00D053E07868B7
:1035F00002F0ECF93B697B6008E078686FF021012C
:1036000002F074F90346002B00D044E07B685B684D
:10361000FB6043F2B863C2F200031A68FB69DA6028
:1036200043F2B063C2F200031A68FB691A61FB68D7
:1036300000221A70FB6800229A700022DA70FB697F
:10364000FF221A72FB6900229A720022DA72B7F91D
:1036500016307868194602F049F90346002B10D15C
:1036600000230093012301933B680293786843F29F
:10367000B861C2F200010022FF2300F0CDFA034638
:10368000FB7200E000BF786802F0A0F907E07868FC
:1036900002F09CF903E0786802F098F900BF203747
:1036A000BD4680BD80B582B000AF78600B46FB7030
:1036B000FB78786803211A4600F014F80837BD46F5
:1036C00080BD00BF80B582B000AF78600B46FB7054
:1036D000FB7878680B211A4600F004F80837BD46DD
:1036E00080BD00BF80B588B002AF786013460A463F
:1036F000FA70BB7001202421002201F03DFF7861A7
:103700007B69002B41D07B685B683B617B695B68B0
:10371000FB60FB68FA781A70FB68BA785A70FB682D
:1037200000221A7100225A71FB6800229A7100224D
:10373000DA717B695B6803F108027B685B6810469D
:1037400019461C22FDF726FAFB6800229A70002217
:10375000DA707B695B89F868194600F075F80346F2
:103760001A46FB685A803B69DB68BB6007F10803B7
:103770000022009201220192786900211A46FF235B
:1037800000F0DCFA786902F021F91837BD4680BDF7
:1037900080B489B000AF786039607B68FB6100233A
:1037A000FB8100237B61FB6903F001033B613B6903
:1037B000002B0DD03B68002B0ADD07F10E0301330F
:1037C000FA69511CF96112781A703B68013B3B6041
:1037D000FB69BB6109E0BB699A1CBA611B887A6905
:1037E00013447B613B68023B3B603B68012BF2DC8E
:1037F0003B68002B04DD07F10E03BA6912781A70DA
:10380000FB897A6913447B617B691A0C7B699BB2E3
:1038100013447B617B691A0C7B699BB213447B6107
:103820003B69002B08D07B691B029AB27B6903F4C9
:103830007F431B0A13437B617B699BB21846243785
:10384000BD465DF8047B704780B582B000AF7860FC
:103850000B467B807B8878681946FFF799FF034603
:10386000DB439BB218460837BD4680BD80B586B0A5
:1038700000AF786000237B610023FB737B683B61B2
:1038800028E03B695A683B695B8910461946FFF797
:103890007FFF03467A6913447B617B691A0C7B695D
:1038A0009BB213447B613B695B8903F001039BB2CC
:1038B000002B0CD0FB7BC3F10103FB737B691B0264
:1038C0009AB27B6903F47F431B0A13437B613B6914
:1038D0001B683B613B69002BD3D1FB7B002B08D0DD
:1038E0007B691B029AB27B6903F47F431B0A134373
:1038F0007B617B699BB2DB439BB218461837BD46A0
:1039000080BD00BF80B485B000AF786045F6D46359
:10391000C2F200031B68FB6015E0FB6893F83130CE
:1039200003F00103002B0BD07B681A68FB685B680F
:103930005A40FB689B681340002B01D1FB681EE0D6
:10394000FB681B68FB60FB68002BE6D145F6D8637B
:10395000C2F200031B68002B0AD045F6D863C2F2FE
:1039600000031B6893F8313003F00103002B01D1F1
:10397000002304E045F6D863C2F200031B68184632
:103980001437BD465DF8047B704700BF80B588B032
:1039900000AF7860396001237B617B685B68FB6105
:1039A000FB691B781B09DBB2042B04D0786802F09A
:1039B0000DF800232BE1FB691B7803F00F03FB815B
:1039C000FB899B00FB81FB695B889BB2184600F07A
:1039D000A5FE0346BB817B685B89FA899A4204D8BD
:1039E0007B681B89BA899A4204D9786801F0EEFF96
:1039F00000230CE1BB897868194601F013FFFB69CD
:103A00001A6943F2B863C2F200031A60FB69DA680C
:103A100043F2B063C2F200031A6001233B613B68CA
:103A2000BB61BB6993F8313003F00103002B1CD05C
:103A3000BB690433002B18D0BB695B68002B14D022
:103A400043F2B863C2F200031A68BB695B689A422A
:103A500024D043F2B863C2F200031B681846B96968
:103A600000F090F90346002B18D13B69002B08D0D9
:103A700000233B6145F6D463C2F200031B68BB61BF
:103A800002E0BB691B68BB61BA693B689A4202D11C
:103A9000BB691B68BB61BB69002BC2D1BB69002B32
:103AA00011D1FB695B7A112B0DD1FB89FA691344A3
:103AB000BB60BB685B889BB2B3F5884F03D13B68A2
:103AC000BB6100237B617B69002B20D043F2B06394
:103AD000C2F200031B68002B19D043F2B063C2F29C
:103AE00000031B681846396800F04CF90346002BA8
:103AF00008D143F2B063C2F200031B6803F0F00385
:103B0000E02B04D1786801F061FF00237FE0BB69FE
:103B1000002B04D1786801F059FF002377E0FB699E
:103B2000DB889BB21A464FF63F731340002B0BD035
:103B3000786800F085FB78607B68002B01D100235A
:103B400065E07B685B68FB6143F2B463C2F200032B
:103B50003A681A6043F2BC63C2F20003FA691A6061
:103B60007868396802F0E0F80346002B36D1FB692B
:103B70005B7A062B09D0112B02D0012B0AD00EE064
:103B80007868396806F0D8FA28E07868396803F070
:103B9000D7FA23E078683968FFF796FC1EE043F215
:103BA000B863C2F200031B681846396800F0EAF8EF
:103BB0000346002B0FD143F2B863C2F200031B6827
:103BC00003F0F003E02B06D07B68FA695A6078684E
:103BD0000221FFF767FD786801F0F8FE43F2B46355
:103BE000C2F2000300221A6043F2BC63C2F2000377
:103BF00000221A6043F2B063C2F2000300221A608E
:103C000043F2B863C2F2000300221A6000235BB2E1
:103C100018462037BD4680BD80B588B000AFF8603B
:103C2000B9607A60FB707B68002B61D01423FB8342
:103C3000F868142101F05AFE0346002B01D0FE2340
:103C400077E0FB685B68BB61BB69FA781A72BB6995
:103C500097F82C205A727B681A68BB691A61FB8B33
:103C60009B089BB2DBB243F04003DAB2BB691A7027
:103C7000BB6997F828205A70FB681B89184600F02A
:103C800037FD03461A46BB695A80BB6900229A7108
:103C90000022DA7140F29A43C2F200031B881846F0
:103CA00000F026FD03461A46BB699A8040F29A430B
:103CB000C2F200031B8801339AB240F29A43C2F267
:103CC00000031A80BB68002B03D0BB681B68002B65
:103CD00004D13B6B5A68BB69DA6003E0BB681A68C1
:103CE000BB69DA60BB6900229A720022DA7208E0CE
:103CF000FB685B68BB61BB691B697B6107F11403EF
:103D00007B603B6B1B8D002B0CD0FB681A893B6BD7
:103D10001B8D9A4206D9F868396B7A6800F0EAFB85
:103D2000034606E03B6B5B69386BF9687A68984735
:103D300003465BB218462037BD4680BD80B58AB0C9
:103D400004AFF860B9607A60FB707868FFF7DAFD5D
:103D500078617B69002B01D1FC230EE0FB7897F89A
:103D60002020009297F8242001927A690292F86844
:103D7000B9687A68FFF750FF03465BB218461837F8
:103D8000BD4680BD80B485B000AF786039607B6887
:103D9000FB607B68B3F1FF3F02D07B68002B01D151
:103DA000012325E03B6893F8313003F00203002B38
:103DB00001D100231CE03B685A687B689A4201D11C
:103DC000002315E0FA683B685B685A403B689B68D3
:103DD0001340002B0BD13B689B68DA437B681A4089
:103DE0003B689B68DB439A4201D1012300E000233A
:103DF00018461437BD465DF8047B704780B588B01F
:103E000000AF786039600023FB833B68002B7B6840
:103E10005B685B687B617B699B889BB2002B20D1D0
:103E20007B685B68BB617B691A687B685A60BB69A9
:103E30005A687B680833104619461422FCF7AAFE1C
:103E4000B8690121FFF73EFCB86901F01BFE03468B
:103E5000FB74FB7C9AB2FB8B1344FB83B86901F0C3
:103E6000B5FD7B685B68BB6114E0BB695B687B6127
:103E7000BB69FB607B691B68BB61F86801F002FEEF
:103E80000346FB74FB7C9AB2FB8B1344FB83F868FC
:103E900001F09CFDBB69002BE7D17868396800F020
:103EA000ADF840F2A043C2F200031A88FB8BD31A8C
:103EB0009AB240F2A043C2F200031A80FB8B18466C
:103EC0002037BD4680BD00BF80B588B000AF7860A8
:103ED000396000233B610023BB6100237B61002329
:103EE000FB6040F29C43C2F200031B68FB612CE0C4
:103EF000FB695A697B68DB689A420CD1FB699A6955
:103F00007B681B699A4206D1FB699A897B689B880A
:103F10009BB29A4210D0FB680133FB60BB69002B57
:103F200002D1FB69BB6107E0FB69DA7FBB69DB7F1C
:103F30009A4201D8FB69BB61FB691B68002B01D069
:103F4000FB697B61FB691B68FB61FB69002BCFD1BF
:103F5000BB69002B08D0B8697969FFF74FFFB860DB
:103F60003A69BB6813443B613A693B689A4202DA9A
:103F7000FB68012BAFDC3B6918462037BD4680BD8E
:103F800080B584B000AF78603960052001F088F911
:103F9000F860FB68002B10D178683968FFF794FF50
:103FA00002463B689A4203DB052001F079F9F8608C
:103FB000FB68002B01D100231CE0F86800212022BF
:103FC000FCF73CFEFB680322DA7740F29C43C2F226
:103FD00000031A68FB681A6040F29C43C2F20003B7
:103FE000FA681A60FB680833184679681422FCF7EF
:103FF000D1FDFB6818461037BD4680BD80B582B044
:1040000000AF7860396040F29C43C2F200031A6846
:104010007B689A4207D17B681A6840F29C43C2F2DF
:1040200000031A6003E07B681A683B681A60052089
:10403000796801F05BF90837BD4680BD90B58BB05B
:1040400000AF7860396000233B620123BB613B68AD
:104050005B687B617B695B889BB2184600F05EFB06
:1040600003461A467B691B7803F00F039BB219467F
:104070008903CB1A9B009BB213447B827B69DB884C
:104080009BB2184600F04AFB0346C3F30C039BB2F5
:10409000DB003B823B685B687B627B6A00221A70B4
:1040A00000225A7000229A700022DA707B6A3A8AE3
:1040B0009A803A8A7B8A13449AB27B6ADA807B6858
:1040C0005B68FB614EE0FB695B68FB607B6A9B8819
:1040D0009AB2FB689B889BB29A421FD27B6AFA69AC
:1040E0001A603B6A002B15D07B6A9B889AB23B6AA8
:1040F000DB889BB29A42C0F08B807B6ADB889AB2E5
:10410000FB689B889BB29A4200F282803B6A3A68C5
:104110001A602AE07B683A685A6026E07B6A9B88CE
:104120009AB2FB689B889BB29A4200D170E07B6A8E
:104130009B889AB2FB68DB889BB29A4200D267E008
:104140003B6A002B09D03B6ADB889AB2FB689B88EC
:104150009BB29A4201D00023BB61FB681B68FB61E4
:10416000FB683B62FB69002BADD1FB69002B17D1CB
:104170003B6A002B11D03B6ADB887B6A9B883B6AD9
:104180003A681A603B6ADB889AB27B6A9B889BB26A
:104190009A4205D00023BB6102E07B683A685A600E
:1041A0007B689B7F03F00103002B2FD0BB69002BA2
:1041B0002AD07B685B685B689B889BB2002B02D02F
:1041C0000023BB6120E07B6A3B627B6A1B68FB616A
:1041D00012E0FB695B687B623B6ADB889AB27B6AB0
:1041E0009B889BB29A4202D00023BB6107E07B6AA6
:1041F0003B627B6A1B68FB61FB69002BE9D1BB69F1
:10420000002B01D07B6ADB88BB6915E0002313E03B
:1042100040F2A043C2F200031C88386801F032FC6F
:104220000346E31A9AB240F2A043C2F200031A8096
:10423000386801F0CBFB002318462C37BD4690BDF3
:1042400090B58BB000AF78600023FB617B685B6842
:10425000BB61BB691B7803F00F039B00142B00D0DC
:1042600016E1BB69DB889BB2184600F057FA03469B
:10427000C3F30C039BB2DB00FB82BB695B889BB280
:10428000184600F04BFA03461A46BB691B7803F048
:104290000F039BB219468903CB1A9B009BB21344B0
:1042A000BB82786801F0EEFB0346FB7440F2A0434A
:1042B000C2F200031B881A46FB7C13440A2B13DD51
:1042C000FB7CB8691946FFF7FFFD0346002B00F0A1
:1042D000DF8040F2A043C2F200031B881A46FB7C39
:1042E00013440A2B00F3D48040F29C43C2F2000333
:1042F0001B683B6218E03B6A5A69BB69DB689A42FB
:104300000DD13B6A9A69BB691B699A4207D13B6A26
:104310009A89BB699B889BB29A4200D107E03B6AAD
:10432000FB613B6A1B683B623B6A002BE3D13B6A43
:10433000002B09D1FB7CB8691946FFF721FE3862D2
:104340003B6A002B1CD1A3E0BB69DB889BB21846FB
:1043500000F0E4F90346C3F30C03002B10D13B6AD1
:10436000DB89184600F0DAF90346C3F30C03002B8F
:1043700006D03B6A08331846B9691422FCF70AFCD8
:10438000FB7C9AB240F2A043C2F200031B881344A4
:104390009AB240F2A043C2F200031A80BB69DB88E4
:1043A0009BB203F02003002B0CD13B6A9B7F43F0B0
:1043B0000103DAB23B6A9A77FA8ABB8A13449AB24B
:1043C0003B6A9A83386A7968FFF738FE0346002B08
:1043D0005CD03B6A9B8B14339AB23B6A9A833B6AEC
:1043E0005B685B681B687B623B6A5B685B68BB61A0
:1043F0003B6A0833B86919461422FCF7CBFB3B6AC9
:104400009B8B184600F074F903461A46BB695A8024
:10441000BB6900229A710022DA71BB6900229A728C
:104420000022DA72B8691421FFF70EFA03461A4621
:10443000BB695A813B6A5B687B600EE07B6A5B68A4
:10444000FB60786A6FF0130101F050FA7868796ABE
:1044500001F042FBFB681B687B627B6A002BEDD19D
:10446000386AF969FFF7CAFD40F2A043C2F20003BF
:104470001C88786801F006FB0346E31A9AB240F202
:10448000A043C2F200031A807B6805E0002303E02A
:10449000786801F09BFA002318462C37BD4690BD82
:1044A00080B500AF062000F0FBFE0346184680BD35
:1044B00080B582B000AF78600620796800F016FF02
:1044C0000837BD4680BD00BF80B584B000AF7860BE
:1044D0007B68FB60FB685B69002B04D0FB685B6951
:1044E000184601F073FAF868FFF7E2FF1037BD468F
:1044F00080BD00BF80B592B002AFF860B9607A604D
:10450000BB681B8D7B8614237B870023FB86FB689F
:104510005B68FB62FB6ABB62BB6ADB889BB21846C6
:1045200000F0FCF803463B873B8FC3F30C03BB87CB
:104530003B8F03F40053FB84FB681B89143BFB8710
:104540007B8E143BDA1D002BB8BF1346DB10BB84F7
:10455000C4E0FA8F7B8E143B9A42CCBF0023012328
:10456000DBB27B84BB8FC3F30C039AB2FB8C134387
:104570003B877B8C002B03D13B8F43F400533B875D
:104580007B8C002B03D1BB8CDB009BB200E0FB8F4C
:104590003B8402201421002200F0EEFFF861FB6949
:1045A000002B01D1FF239EE0FB695B681846F96A86
:1045B0001422FCF7EFFAFB695B68BB62FB685A6880
:1045C0007B8F1A44FB685A60FB685A897B8FD31A29
:1045D0009AB2FB685A813B8CBB864AE0FB685A89D9
:1045E000BB8E9A4238BF1346FB86FB8E002B03D14D
:1045F000FB681B68FB603CE0FFF752FFB861BB69DA
:10460000002B04D1F86901F0E1F9FF236BE0BB69ED
:10461000FA685168FA8E0091F98E019103201146D3
:10462000022201F0A5F878617B69002B07D1B869F7
:10463000FFF73EFFF86901F0C9F9FF2353E0F8687E
:1046400001F038FABB69FA685A61BA6944F2C943A1
:10465000C0F600031361F869796901F03DFABA8E7A
:10466000FB8ED31ABB86BB8E002B02D0FB681B6867
:10467000FB60BB8E002BB1D1FB8E7B873B8F184636
:1046800000F036F803461A46BB6ADA803B8C1433D6
:104690009BB2184600F02CF803461A46BB6A5A80B3
:1046A000BB6A00229A720022DA72B86A1421FFF7FC
:1046B000CBF803461A46BB6A5A81BB685B69B86887
:1046C000F9697A689847F86901F080F9FA8F3B8CAC
:1046D000D31AFB87BA8FBB8C1344BB87FB8F002B8D
:1046E0007FF437AF00235BB218464037BD4680BD2C
:1046F00080B483B000AF0346FB80FB881B029AB2F4
:10470000FB881B0A9BB29BB213439BB29BB2184619
:104710000C37BD465DF8047B704700BF80B582B0A2
:1047200000AF0346FB80FB881846FFF7E1FF034616
:1047300018460837BD4680BD80B483B000AF7860AE
:104740007B681A067B6803F47F431B021A437B686D
:1047500003F47F031B0A1A437B681B0E134318469E
:104760000C37BD465DF8047B704700BF80B582B052
:1047700000AF78607868FFF7DFFF03461846083718
:10478000BD4680BD80B582B000AF786039607B687F
:10479000002B00D112E07B685B6A002B0ED07B6897
:1047A0005B6A1B7B082B09D13B681A687B685B6AD4
:1047B0005B6A9A4202D1786800F004F80837BD4677
:1047C00080BD00BF80B586B002AF78607B685B6A51
:1047D000FB600023FB72F8680C2100F057F8786842
:1047E000F968042200F0F0F80346FB7297F90B30E9
:1047F000002B2DD1F8683221042200F061F8FB680B
:104800005B6A1846FFF7B2FF0346F868194600F0E6
:1048100095F8F86800F008FAFB681A69FB681B8BCA
:10482000F0339BB21046194600F0FCFFFB685A6853
:10483000FB681B69796800911046194648F28C1292
:10484000C0F60102432305F0EDFDF86800F0D2F94F
:10485000FB685B7B0133DAB2FB685A7342F2107378
:104860003B813B8903F2F31244F6D353C1F2620356
:1048700083FB02135911D317CB1A9AB2FB685A83E0
:10488000FB7A5BB218461037BD4680BD80B483B05A
:1048900000AF78600B46FB707B681B7BFA789A420E
:1048A00008D07B68FA781A737B6800225A737B6899
:1048B00000225A830C37BD465DF8047B704700BF69
:1048C00080B483B000AF786013460A46FA70BB70BC
:1048D0007B685A697B681B8B591C88B2796808838E
:1048E0001344FA7883F8F0207B685A697B681B8B45
:1048F000591C88B2796808831344BA7883F8F02089
:104900000C37BD465DF8047B704700BF80B483B0B0
:1049100000AF78600B46FB707B685A697B681B8B25
:10492000591C88B2796808831344FA7883F8F02018
:104930000C37BD465DF8047B704700BF80B483B080
:1049400000AF786039607B6859697B681B8B5A1CA3
:1049500090B27A6810833A68120ED2B20B4483F890
:10496000F0207B6859697B681B8B5A1C90B27A686F
:1049700010833A6802F47F02120CD2B20B4483F81F
:10498000F0207B6859697B681B8B5A1C90B27A684F
:1049900010833A6802F47F42120AD2B20B4483F8C1
:1049A000F0207B6859697B681B8B5A1C90B27A682F
:1049B00010833A68D2B20B4483F8F0200C37BD461E
:1049C0005DF8047B704700BF90B587B000AFF8601A
:1049D000B9601346FB71FB68002B01D1F22303E1A0
:1049E000BB68002B01D1FA23FEE000204FF49A713E
:1049F000002200F0C1FD0246BB681A61BB681B695A
:104A0000002B01D1FF23EFE0BB685B7B002B0AD1B9
:104A100040F20003C2F200031B685A1C40F200037C
:104A2000C2F200031A6040F20003C2F200031A68E7
:104A3000BB681A60BB681B695A68BB685A61BB686F
:104A40005B6901221A70BB685B6901225A70BB68FE
:104A50005B69FA6892F82A209A70BB685B69002249
:104A6000DA70BB685C69BB681B681846FFF764FEB8
:104A700003466360BB685B6900221A7200225A72A7
:104A8000BB685B6900229A720022DA72BB685B69BC
:104A900000221A7300225A7300229A730022DA73DA
:104AA000FB79082B0DD0FB79042B0AD0FB79032B63
:104AB0000CD1BB681B7B052B03D0BB681B7B042B75
:104AC00004D1BB685B69FA685268DA60BB685B69ED
:104AD00000221A7400225A7400229A740022DA7496
:104AE000BB685B6900221A7500225A7500229A750C
:104AF0000022DA75BB685B6900221A7600225A76BA
:104B000000229A760022DA760023FB8214E0BB684A
:104B10005969FA8AFB6893F82A30F88A984205D2D4
:104B2000FB8AF868034493F82B3000E000230A4422
:104B30001377FB8A0133FB82FB8A0F2BE7D9002313
:104B4000FB8209E0BB685A69FB8A1344002283F8A0
:104B50002C20FB8A0133FB82FB8A3F2BF2D90023F6
:104B6000FB8209E0BB685A69FB8A1344002283F880
:104B70006C20FB8A0133FB82FB8A7F2BF2D9BB6856
:104B80005B69002242F0630283F8EC20002262F0AD
:104B90007D0283F8ED20002242F0530283F8EE20DC
:104BA000002242F0630283F8EF20BB6800221A83E0
:104BB0000023FB820AE0BB685969FB8AFA8AD2B2F9
:104BC0000B4483F8F020FB8A0133FB82FB8A432BE2
:104BD000F1D9B86835210122FFF772FEFB79B86878
:104BE0001946FFF793FE00235BB218461C37BD46FB
:104BF00090BD00BF80B582B000AF78607B68002BAD
:104C000000D10EE07B681B69002B04D07B681B6918
:104C1000184600F0DBFE7B6800221A617B680022E8
:104C20005A610837BD4680BD80B483B000AF78605C
:104C30007B68002B00D126E07B685A697B681B8B60
:104C4000591C88B2796808831344FF2283F8F02046
:104C50000BE07B685A697B681B8B591C88B27968AA
:104C600008831344002283F8F0207B681B8B432BBE
:104C700005D97B681B8B03F00303002B03D07B68F3
:104C80001B8B432BE5D90C37BD465DF8047B704781
:104C900080B485B000AF786040F2A443C2F2000354
:104CA0001A687B681B881344FB607A68FB689A4229
:104CB0002ED0FB681B79002B2AD140F2A843C2F208
:104CC00000031B68FA689A4222D040F2AC43C2F259
:104CD00000031A68FB689A4205D140F2AC43C2F265
:104CE00000037A681A60FB681A887B681A8040F2B1
:104CF000A443C2F200031A68FB681B881A4479684F
:104D000040F2A443C2F200031B68CB1A9BB253804B
:104D100040F2A443C2F200031A687B685B88134424
:104D2000BB60BA687B689A4226D0BB681B79002BAF
:104D300022D140F2AC43C2F200031A687B689A4267
:104D400005D140F2AC43C2F20003BA681A607B6836
:104D50001A88BB681A8040F2A443C2F200031A68A2
:104D60007B681B881A44B96840F2A443C2F200036E
:104D70001B68CB1A9BB253801437BD465DF8047B89
:104D8000704700BF80B483B000AF43F2C063C2F28B
:104D90000003033323F003031A4640F2A443C2F294
:104DA00000031A6040F2A443C2F200031B687B6058
:104DB0007B684FF420521A807B6800225A807B68FF
:104DC00000221A7140F2A443C2F200031B6803F5EB
:104DD000205240F2A843C2F200031A6040F2A843F6
:104DE000C2F200031B6801221A7140F2A843C2F20A
:104DF00000031B684FF420521A8040F2A843C2F20D
:104E000000031B684FF420525A8040F2A443C2F2C0
:104E100000031A6840F2AC43C2F200031A600C3778
:104E2000BD465DF8047B704780B584B000AF786004
:104E30007B68002B00D12EE040F2A443C2F20003B5
:104E40001B687A689A4240F2A443C2F200031B68CE
:104E50007A689A4207D340F2A843C2F200031B6863
:104E60007A689A4200D316E07B68083BFB60FB68D7
:104E700000221A7140F2AC43C2F200031B68FA68C8
:104E80009A4205D240F2AC43C2F20003FA681A60BB
:104E9000F868FFF7FDFE1037BD4680BD80B487B0CF
:104EA00000AF78600B467B807B8803339BB223F096
:104EB00003037B807B880B2B01D80C237B807B88B2
:104EC000B3F5205F01D90023C4E040F2A443C2F24D
:104ED00000031B687A689A4240F2A443C2F20003BE
:104EE0001B687A689A4207D340F2A843C2F20003D3
:104EF0001B687A689A4201D37B68ABE07B68083B09
:104F00007B617A6940F2A443C2F200031B68D31AA2
:104F10007B827B691A887B8AD31A9BB2083B3B82CF
:104F20007A883B8A9A4201D9002393E07A883B8AA7
:104F30009A4201D17B688DE040F2A443C2F20003A3
:104F40001A687B691B881344FB60FB681B79002B84
:104F500041D1FB681B887B817A8A7B8813449BB292
:104F600008333B8140F2AC43C2F200031A68FB688D
:104F70009A420BD140F2A443C2F200031A683B8963
:104F80001A4440F2AC43C2F200031A6040F2A44358
:104F9000C2F200031A683B891344FB60FB680022DD
:104FA0001A71FB687A891A80FB687A8A5A807B6951
:104FB0003A891A80FB681B88B3F5205F0AD040F25B
:104FC000A443C2F200031A68FB681B8813443A89A1
:104FD0005A803EE03DE07B8803F114023B8A9A420E
:104FE00037D87A8A7B8813449BB208333B8140F2DE
:104FF000A443C2F200031A683B891344FB6040F2E9
:10500000AC43C2F200031B68FA689A4205D240F230
:10501000AC43C2F20003FA681A60FB6800221A71FE
:105020007B691A88FB681A80FB687A8A5A807B69D8
:105030003A891A80FB681B88B3F5205F09D040F2DB
:10504000A443C2F200031A68FB681B8813443A8920
:105050005A807B6818461C37BD465DF8047B704754
:1050600080B489B000AF0346FB80FB88002B01D1E0
:105070000023B9E0FB8803339BB223F00303FB80DA
:10508000FB880B2B01D80C23FB80FB88B3F5205F3A
:1050900001D90023A8E040F2AC43C2F200031B6830
:1050A0001A4640F2A443C2F200031B68D31AFB83E2
:1050B00092E040F2A443C2F200031A68FB8B13444F
:1050C0007B617B691B79002B7DD17B691B881A462C
:1050D000FB8BD31AA3F10802FB889A4273D37B6936
:1050E0001B881A46FB8BD31AA3F10802FB881433E2
:1050F0009A422DD3FA8BFB8813449BB208337B82F0
:1051000040F2A443C2F200031A687B8A1344FB6096
:10511000FB6800221A717B691A88FB681A80FB6899
:10512000FA8B5A807B697A8A1A807B6901221A710C
:10513000FB681B88B3F5205F0DD040F2A443C2F298
:1051400000031A68FB681B8813447A8A5A8002E0BD
:105150007B6901221A7140F2AC43C2F200031B6862
:105160007A699A422CD140F2AC43C2F200031B6828
:10517000BB6108E040F2A443C2F200031A68BB69B5
:105180001B881344BB61BB691B79002B07D040F21D
:10519000A843C2F200031B68BA699A42EAD140F2FE
:1051A000AC43C2F20003BA691A6040F2AC43C2F2E7
:1051B00000031A6840F2A843C2F200031B689A4237
:1051C0007B69083310E040F2A443C2F200031A687E
:1051D000FB8B13441B88FB83FA8BFB88C3F520539E
:1051E0009A42FFF666AF002318462437BD465DF8A5
:1051F000047B704780B483B000AF00237B8002E063
:105200007B8801337B807B88082BF9D940F2D4431B
:10521000C2F20003033323F003037B6000237B808F
:1052200035E07A8840F2B043C2F20003002143F82F
:10523000221000233B801DE07A8840F2B043C2F286
:10524000000353F822207B681A607A8840F2B0434A
:10525000C2F20003796843F822107A8848F290136A
:10526000C0F6010333F812307A6813447B603B8840
:1052700001333B807A8848F2A413C0F6010333F867
:1052800012303A889A42D7D37B8801337B807B885F
:10529000082BC6D90C37BD465DF8047B704700BFAC
:1052A00080B485B000AF0346FB71FB79082B01D9B0
:1052B000002314E0FA7940F2B043C2F2000353F83D
:1052C0002230FB60FB68002B08D0FA79FB68196874
:1052D00040F2B043C2F2000343F82210FB681846C4
:1052E0001437BD465DF8047B704700BF80B485B0BD
:1052F00000AF03463960FB713B68002B00D112E020
:105300003B68FB60FA7940F2B043C2F2000353F805
:105310002220FB681A60FA7940F2B043C2F200031F
:10532000F96843F822101437BD465DF8047B7047D6
:1053300080B584B000AFF860B9607A603B60FB680C
:1053400000225A60FB6800229A60FB680022DA6043
:10535000FB68002283F83120FB6800225A62FB6858
:105360000022DA61FB68BA691A6242F6A003C2F24F
:1053700000031B781A46531CD9B242F6A003C2F2AE
:1053800000031970FB6883F83420FB683A6A1A61DD
:10539000F868B9687A683B6800F01AF8FB69F86841
:1053A00098470346002B01D000230DE045F6D46357
:1053B000C2F200031A68FB681A6045F6D463C2F2B1
:1053C0000003FA681A60FB6818461037BD4680BDB6
:1053D00080B584B000AFF860B9607A603B60F8686F
:1053E000B96800F00BF8F868796800F075F8F868AB
:1053F000396800F05DF81037BD4680BD80B586B0D5
:1054000000AF786039603B68002B44D03B681A6875
:105410007B685B689A423ED045F6E063C2F20003C7
:105420001B687B6111E07B691A687B685B689A4244
:1054300008D17B69DB68FB60786900F0D9FEFB6806
:105440007B6102E07B69DB687B617B69002BEAD1D1
:1054500045F6E863C2F200031B683B6118E03B6954
:10546000002B12D03B691B68002B0ED03B691A68D9
:105470007B685B689A4208D13B68002B02D03B688E
:105480001B6800E000233A6913603B69DB683B61FD
:105490003B69002BE3D13B68002B02D03B681B68C3
:1054A00000E000237A6853601837BD4680BD00BF16
:1054B00080B483B000AF786039603B68002B02D0C5
:1054C0003B681B6800E000237A68D3600C37BD4658
:1054D0005DF8047B704700BF80B483B000AF786094
:1054E00039603B68002B02D03B681B6800E000235A
:1054F0007A6893600C37BD465DF8047B704700BF47
:1055000080B483B000AF786045F6D863C2F2000380
:105510007A681A600C37BD465DF8047B704700BF9F
:1055200080B582B000AF78607B6893F8313003F0CB
:105530000103002B1CD17B6893F8313043F0010349
:10554000DAB27B6883F831207B6893F8313003F05E
:105550001003002B0CD07B6893F8313003F020034C
:10556000002B05D07B68043378681946FDF708FFE7
:105570000837BD4680BD00BF80B588B000AF134678
:105580000246FA710A46BA80BB71FB79032B17D821
:1055900001A252F823F000BFA9550008AF5500083A
:1055A000B5550008BB5500083623FB820AE02223CC
:1055B000FB8207E00E23FB8204E00023FB8201E074
:1055C0000023D0E0BB79032B00F2C48001A252F883
:1055D00023F000BFC35600082157000821570008D8
:1055E000E55500080820FFF75BFEF861FB69002B1A
:1055F00001D10023B7E0FB69BA791A73FB69002275
:105600001A60FB8A1033FA691344033323F003034F
:105610001A46FB695A60FB69BA881A81FB8A033310
:1056200023F00303C3F50072BB889A42B8BF134648
:105630009AB2FB695A81FB690122DA81FB69BB617D
:10564000BA88FB695B89D31A3B6136E00820FFF713
:1056500027FEF860FB68002B04D1F86900F0B6F96A
:10566000002380E0FB68BA791A73FB6800225A7342
:10567000FB6800221A60BB69FA681A603B699AB23B
:10568000FB681A813B699BB2B3F5007F02D23B698C
:105690009BB201E04FF40073FA685381FB6803F199
:1056A0001002FB685A60FB680122DA81FB685B89A3
:1056B0003A69D31A3B61FB68BB613B69002BC5DCCF
:1056C0004AE0FB8A13339BB223F003039AB2BB88F0
:1056D00003339BB223F003039BB213449BB21846DF
:1056E000FFF7BEFCF861FB69002B01D100233AE013
:1056F000FB8A1033FA691344033323F003031A4679
:10570000FB695A60FB69BA881A81FB691A89FB69CF
:105710005A81FB6900221A60FB69BA791A731BE08F
:105720000720FFF7BDFDF861FB69002B01D10023C5
:1057300019E0FB6900225A60FB69BA881A81FB698B
:105740001A89FB695A81FB6900221A60FB69BA79E0
:105750001A7301E0002306E0FB690122DA81FB698C
:1057600000225A73FB6918462037BD4680BD00BF32
:1057700080B485B000AF3B600346FB710B46BB8035
:105780001346BB71FB79032B16D801A252F823F004
:10579000A1570008A7570008AD570008B3570008E5
:1057A0003623FB810AE02223FB8107E00E23FB81E5
:1057B00004E00023FB8101E000232DE0FB8903339B
:1057C00023F00302BB881A44BB8B9A4201DD0023FD
:1057D00022E03B6800221A60BB69002B08D0FB89DD
:1057E000033323F00303BA691A443B685A6002E0AA
:1057F0003B6800225A603B6802225A733B68BA88B1
:105800001A813B681A893B685A813B68BA791A73D6
:105810003B680122DA813B6818461437BD465DF8C3
:10582000047B704780B586B000AF78600B467B8004
:105830007B681B7B032B06D07B681B7B012B02D074
:105840007B681B7B002B7B681B897A889A4200D37C
:1058500048E07A887B681B89D31AFB607B887B824F
:105860007B687B610FE07B695B897A8AD31A7B82D4
:105870007B691A89FB689BB213449AB27B691A81CF
:105880007B691B687B617B695B897A8A9A42EAD86B
:105890007B691B7B002B12D17B695B897A8A9A42D8
:1058A0000DD07B695B681A467B69D31A9AB27B8AF2
:1058B00013449BB278691946FFF7F0FA78617B6967
:1058C0007A8A5A817B695A897B691A817B691B684C
:1058D000002B04D07B691B68184600F077F87B69C1
:1058E00000221A601837BD4680BD00BF80B485B065
:1058F00000AF78600B467B80B7F90230002B02D0F6
:105900007B68002B01D100235AE0B7F90230002B4D
:1059100009DA7B885B42FB817B685B89FA899A4262
:1059200003D901234CE07B88FB817B681B7BBB8117
:105930007B685B68BB60BB89002B02D0BB89032BF3
:1059400013D17B685A68B7F902305B421A447B680E
:105950005A607B685A687B6810339A4204D27B682D
:10596000BA685A6001232BE01BE0BB89022B02D0EE
:10597000BB89012B13D1B7F90230002B0DDA7B68FC
:105980005B89FA899A4208D87B685A68B7F902306D
:105990005B421A447B685A6003E0012310E0012354
:1059A0000EE07B685A897B8813449AB27B685A81DF
:1059B0007B681A897B8813449AB27B681A8100231A
:1059C00018461437BD465DF8047B704780B586B035
:1059D00000AF78607B68002B01D100234EE07B682C
:1059E0001B7B002B06D07B681B7B012B02D07B68C6
:1059F0001B7B022B0023FB753CE07B68DB89013BB2
:105A00009AB27B68DA817B68DB89BB82BB8A002B18
:105A10002ED17B681B683B617B681B7BFB817B68AD
:105A20005B7B03F00203002B06D07B68BB60BB6886
:105A30001B697868984715E0FB89032B04D108207F
:105A40007968FFF753FC0DE0FB89012B02D0FB893D
:105A5000022B04D107207968FFF748FC02E0786840
:105A6000FFF7E2F9FB7D0133FB753B697B6001E0E9
:105A700000237B607B68002BBFD1FB7D1846183765
:105A8000BD4680BD80B485B000AF78600023FB7355
:105A900005E0FB7B0133FB737B681B687B607B68E5
:105AA000002BF6D1FB7B18461437BD465DF8047B0E
:105AB000704700BF80B483B000AF78607B68002B74
:105AC00005D07B68DB8901339AB27B68DA810C37B9
:105AD000BD465DF8047B704780B485B000AF786048
